:10000000506400107F2300001F0900001F0900003A
:100010001F0900001F0900001F090000964AFFEF9A
:100020000000000000000000000000001F090000A8
:100030001F090000000000001F0900001F09000048
:100040001F0900009D040000BB0400001F09000000
:100050001F0900001F0900001F0900001F09000000
:100060001F0900001F090000E50E00001F09000025
:10007000B94D00001F0900001F0900001F09000002
:100080001F0900001F0900001F0900001F090000D0
:100090001F0900001F0900001F0900001F090000C0
:1000A0001F0900001F0900001F0900001F090000B0
:1000B0001F0900001F0900001F0900001F090000A0
:0400C0001F09000014
:10010000DFF84404006830F02000DFF83C14086099
:10011000DFF83804006830F00200DFF830140860BF
:10012000DFF82C04AA210160DFF8240455210160C6
:10013000DFF81804006840084000DFF81014086079
:10014000DFF80C04AA210160DFF8040455210160E6
:10015000DFF80004006880088000DFF8F81308600A
:100160004A20DFF8F413096860F30E01DFF8E803B2
:1001700001600120DFF8E013096860F31741DFF840
:10018000D8030160DFF8C803AA210160DFF8C003CB
:1001900055210160DFF8B403006850F00100DFF87A
:1001A000AC130860DFF8A803AA210160DFF8A00300
:1001B00055210160DFF8A4030068C0F380600028C7
:1001C000F8D0DFF89C0302210160DFF880030068AB
:1001D00050F00200DFF874130860DFF87403AA21FE
:1001E0000160DFF86C0355210160704780B5DFF8CE
:1001F0007403006850F03000DFF868130860DFF81F
:100200006803006850F00400DFF85C130860DFF852
:100210005C03006840084000DFF850130860DFF816
:100220004C03006850F00200DFF840130860DFF86C
:100230003C03006830F00200DFF830130860DFF89C
:100240003003006880088000DFF824130860DFF8BE
:100250002403006850F00100DFF818130860DFF88D
:100260001403006850F00200DFF808130860DFF89C
:100270000403006830F00400BE490860BE484FF433
:100280007A710160BD484FF4FA710160BC480068A2
:1002900050F00100BA490860B448006850F001000D
:1002A000B24908600321122000F0DFF9122000F0AB
:1002B0008BF962B601BDB348006850F00100B14946
:1002C0000860B048006850F00200AE490860AE48CF
:1002D000006830F00400AC490860AB48006850F09A
:1002E0000800A9490860A948006840084000A749DB
:1002F0000860A648006830F00200A4490860A448DD
:10030000006830F00800A2490860704780B5C0B2AC
:10031000002805D002281ED016D303280AD020E0DA
:100320009C48002101709948006850F001009749ED
:10033000086016E097480021017094480068400862
:100340004000924908600CE092480121017012209F
:1003500000F03AF905E08F4807210170122000F003
:1003600033F901BD80B5C0B2002805D002281ED0E7
:1003700016D303280AD020E0874800210170834863
:10038000006850F002008149086016E082480021B0
:1003900001707E48006830F002007C4908600CE083
:1003A0007D4801210170122000F00EF905E07A4825
:1003B00007210170122000F007F901BD002204E0BE
:1003C000491C764B9942FBD3521CC0B2B2EB400F92
:1003D0000DDA6E490968C1F3400191F001016B4BE0
:1003E0001B6861F3410369490B600021E9E770472D
:1003F0005C48006850F00C005A4908605A48006890
:1004000050F0020058490860654800684008400004
:10041000634908606248006850F002006049086063
:100420005F48006830F002005D4908605D48006880
:10043000800880005B4908605B48006850F001005C
:10044000594908605848006850F002005649086051
:100450005548006830F004005349086053484FF491
:100460007A61016052484FF47A6101605FF0402088
:10047000006850F001005FF04021086048480068C3
:1004800050F00100464908604A48006830F0020018
:100490004849086048480121017070475FF04020DA
:1004A000006850F001005FF0402108604348006898
:1004B00050F0020041490860704780B53548007827
:1004C000002817D03E48007832490978884205D084
:1004D0003B480078401C3A4908700BE02B48006804
:1004E000C0432A49096860F3000128480160344884
:1004F000002101702848007800281AD0314800787F
:1005000025490978884205D02E480078401C2D499D
:1005100008700EE01D480068C0F3400090F0010034
:100520001A49096860F34101184801602548002113
:1005300001701348006850F0010011490860122052
:1005400000F078F801BD0000A0C10F4080C00F404E
:100550008CC00F400CC10F4084C00F4088C00F40BA
:1005600004C10F40A8C10F40C4C00F400480004028
:1005700070800040148000400C80004018800040D3
:100580000080004040C0092000C0092054C009205C
:1005900014C00920495C00104A5C0010C0C62D0040
:1005A0000440004070400040144000400C400040B7
:1005B0001840004000E100E0385C001080E200E0FC
:1005C0004B5C00104C5C001038B50400304DB4F1A9
:1005D0001000212806D321222E492F4800F065F86B
:1005E00000F062F8103C600915EB80050120202125
:1005F000B4FBF1F202FB11429040286031BD38B5E6
:100600000400264DB4F11000212806D335222149DB
:10061000214800F04AF800F047F8103C600915EB5B
:10062000800501202021B4FBF1F202FB1142904031
:10063000286031BD38B50400194DB4F110002128EF
:1006400006D347221349144800F02FF800F02CF885
:10065000103C600915EB800501202021B4FBF1F26C
:1006600002FB11429040286031BD70B504000D00BE
:100670000C4EB4F11000212806D35B220549064830
:1006800000F013F800F010F8103CA619357070BD9A
:1006900000E100E038210000AC22000080E100E031
:1006A00080E200E000E400E07047B0B584B00024D0
:1006B00003468DF80A4008460A210DF109040A256F
:1006C00092FBF5F505EB8507A2EB4702303204F803
:1006D0000129491E2A46C9B2012A01DB0029EED1AF
:1006E00000AC0022091900F010F808B900F05CF81D
:1006F00004B0B0BD10B5044603E014F8010B00F0DF
:1007000056F820780028F8D110BDF8B504460D46FB
:1007100016001F460AD00FF25800FFF7EBFF3046D5
:10072000FFF7E8FF0FF25800FFF7E4FF2046FFF75E
:10073000E1FF0FF25400FFF7DDFF2846FFF7DAFF75
:100740000FF24800FFF7D6FF03E017F8010B00F0A7
:100750002EF838780028F8D10FF2340403E014F8AA
:10076000010B00F024F820780028F8D1F2BD000039
:10077000496E2066756E6374696F6E20000000001C
:10078000202D2D20000000003A0000002000000075
:10079000202D2D20617373657274696F6E20666100
:1007A000696C65640A000000012000F02BB810B5E8
:1007B000044682B014F1010F0AD08DF80000012226
:1007C00000A9012000F028F8012801D1204616BD1B
:1007D0004FF0FF3016BD10B450F8041B81B1026811
:1007E0001218001D50F8043BDC0744BFA9F10104B6
:1007F000E31852F8044B43F8044B091FF9D1EBE717
:1008000010BC704780B500F00FF8024A11001820A4
:10081000ABBEFBE72600020080B5002802D400F042
:1008200039F802BD002002BD80B500F053F8020087
:100830000023DB431068984204D011000220ABBEB5
:10084000002010605068984204D0111D0220ABBEF9
:100850000020506001BD000010B584B0040000F01D
:1008600039F8A100421810680021C94388420DD10F
:1008700007A00090002C01D1002000E0042001908E
:100880000320029069460120ABBE106004B010BD89
:100890003A74740080B5002901D1002002BD0128FE
:1008A00001D0022802D100F019F802BD00F026F8AC
:1008B00002BD50F8041B61B150F8042BD30744BFAC
:1008C000A9F101039A18002342F8043B091FFAD149
:1008D000EFE77047004870470C00001030B583B058
:1008E0000C0015000120FFF7B7FF0090019402955E
:1008F00069460520ABBE281A03B030BD10B584B0E0
:100900001300009001910293012204006946052022
:10091000ABBE181A2100C046C04604B010BDFEE7A9
:1009200080B5FFF7EDFBFFF7C6FCFFF75FFC01208A
:10093000FFF7ECFC0320FFF715FD00F029FA01BDDD
:1009400010B400224FF48053002101E09A18491C92
:10095000102907DA9042F9D302F6FF748442F5D3E6
:10096000080011E047F6FF73102101E09A18491CB6
:100970001E2908DA9042F9D302F5FE44FF3484427E
:10098000F4D3080000E0002010BC704710B500F060
:10099000F9FBDFF8D803002180F81C14DFF8CC0342
:1009A000002180F82414DFF8C4030021C0F82C14BF
:1009B000DFF8B8030021C0F82014DFF8B403C078D2
:1009C000DFF8AC13097951EA0020DFF8A0130860C2
:1009D000DFF89C034079DFF898138979090251EA1E
:1009E0000040DFF88C13C9790843DFF880130861F1
:1009F000DFF87803DFF874130969C0F83014DFF802
:100A00006C03DFF86C13097A8161DFF86403C07846
:100A1000DFF85C1309794840DFF8541349794840FE
:100A2000DFF84C1389794840DFF84413C97948400E
:100A3000DFF83813C861DFF83403C069DFF82C131E
:100A40008969884255D1DFF824030068000B401CF7
:100A5000DFF818134860DFF8140300682D21B0FB9D
:100A6000F1F0401CDFF804138860DFF80003006930
:100A7000FFF766FFDFF8F4120875002006E0BB49B7
:100A800011EB80014FF480520A62401CB74949685B
:100A9000884211D2B5494968491E8842EFD1B3490D
:100AA00011EB8001B14A12684FF48053B2FBF3F4AA
:100AB00004FB13240C62E8E7002005E0AB4911EBCE
:100AC00080012D224A63401CA8498968884213D2BC
:100AD000A6498968491E8842F0D1A44909682D2297
:100AE000B1FBF2F302FB1311A04A12EB8002516337
:100AF000E9E79E480321017310BD9E4890F88300EA
:100B00009C4991F8841051EA00209849C1F82804C2
:100B1000984890F88500974991F8861051EA00208E
:100B2000924988619148934991F88710C1610520E5
:100B300009E08E49C9698F4A821892F883205118BA
:100B40008A4AD161401C8949D1F82814874A12EB9E
:100B50008101496B491D8842EBD38448D0F82804B1
:100B60008249D1F82C14491C884204D07F48D0F81F
:100B7000280400283CD17D48C0697C4989698842A5
:100B800032D17A48D0F828042D214843002108E0CA
:100B90004218794BD218774BCB1893F887301371E2
:100BA000491C724AD2F82824704B13EB8202526B14
:100BB0009142EDD36D4890F82404401C6B4981F8B4
:100BC00024046A486949D1F82814C0F82C146B48E9
:100BD0000068C0F3400090F001006849096860F3C4
:100BE00041016648016006E060480321017302E0AC
:100BF0005E48062101735D4890F824045B498968CA
:100C0000884208D1594807210173594821210170B0
:100C1000574801214170704738B55448007D03287A
:100C200063DB5248007D514949680818411EC9B22A
:100C30004E48007D00F0CEFA002803D04B48012139
:100C4000017355E04E4A4948007D484949680818F3
:100C5000411EC9B24548007D00F0F7FA002803D0D4
:100C600042480121017343E000240FE0401C3F4B48
:100C70001B68984209D23D4B08251D73435C855C77
:100C8000AB42F3D0394809210173641C37484068EE
:100C900084422DD23548007D2118C9B23348007DE9
:100CA0002018C0B200F096FA002803D02F48012186
:100CB00001731DE0200000F02DF80500200000F079
:100CC00018F82F4B4FF480522B496918091D00F07A
:100CD0009FFA002803D025480221017308E0294922
:100CE0002248D0F830240020C1E7204805210173B4
:100CF00031BD002802D11D4800690AE01B4909697D
:100D00001A4A12EB8000C069401818490861174858
:100D100000697047002803D11448D0F820040DE082
:100D20001249D1F82014114A12EB8000C069401812
:100D30000E49C1F820040D48D0F8200470470D4832
:100D40000121C0F81C110948007B0A49087070474E
:100D500008480221C0F81C1106480B4909680170B7
:100D600004480A4909684170704700003055001076
:100D7000245C0010985A00101800001054C009207C
:100D8000A08601001C000010305C0010345C0010D4
:100D900080B5DFF80004006830F00400DFF8F413D9
:100DA00008600220DFF8F013096860F38F31DFF884
:100DB000E80301600120DFF8E413096860F397514C
:100DC000DFF8D80301600120DFF8D013096860F371
:100DD0001961DFF8C80301600220DFF8C413096855
:100DE00060F39751DFF8B80301600220DFF8B01319
:100DF000096860F31961DFF8A8030160DFF8A40354
:100E0000FB210160DFF8A003F9210160DFF89C03FA
:100E100044210160DFF8980341F20401C0F8201179
:100E2000DFF88C03082180F82911DFF88403012101
:100E300080F8241100F0A6F9DFF87803006850F478
:100E40008060DFF87013086001BD80B5DFF86013C3
:100E500091F83011002944D1C0B200280FD0C0B29F
:100E6000400050F00100DFF850130860DFF8400345
:100E7000012180F830110020FFF748FA28E0DFF860
:100E80003C03407801281ED1DFF8300300780528A4
:100E900017D1DFF82C030068C0F38000002810D0C1
:100EA000DFF81803C078400050F00100DFF8141399
:100EB00008600020FFF72AFADFF8F402012180F829
:100EC000301100F05FF9BA4890F830010028D6D010
:100ED000BB48006850F00800B94908600220FFF7DD
:100EE0006DFA01BD80B5B848006810F0F80000F058
:100EF00001F801BDC0B2602819D0682826D070283A
:100F00002FD078283CD0802845D0902863D0A028C6
:100F100000F08180A82800F0A180B82800F0B880F7
:100F2000C02800F00B81C82800F0168122E1A048FB
:100F3000002180F824119E48002180F819119B4857
:100F400004210160A148082101601AE198480021AC
:100F500080F819119548242101609C4808210160FE
:100F60000FE19348002180F824119148002180F876
:100F700019118E480421016094480821016000E1A4
:100F80008B48002180F819118848242101608F487E
:100F900008210160F5E0864890F819018449D1F8EC
:100FA0002011884213D2824890F8190180494018D4
:100FB0008749096880F882107D4890F81901401C23
:100FC0007B4981F8190181480821016002E07F48CE
:100FD0000C210160D5E0764890F819017449D1F8E8
:100FE0002011884213D2724890F8190170494018B4
:100FF0007749096880F882106D4890F81901401C03
:101000006B4981F8190171480821016002E06F48BD
:101010000C210160B5E0664890F8820067490870CD
:10102000002009E0C0B265494118C0B2604A821888
:1010300092F88320CA70401CC0B20628F2DB5F48D9
:10104000012141705A48002180F8191158480121A6
:1010500080F824115D480821016092E05448002185
:1010600080F824115248002180F81811504890F857
:1010700018014F49405C564908604D4890F81801E6
:10108000401C4B4981F8180150480821016078E064
:10109000474890F81801002811D1454890F81801E8
:1010A0004349405C4A490860414890F81801401C97
:1010B0003F4981F818014548082101603DE03C485E
:1010C00090F818013A49D1F81C11884216D23848D4
:1010D00090F81801002811D0354890F818013449CB
:1010E000405C3B490860324890F81801401C304988
:1010F00081F818013548082101601EE02C4890F85D
:1011000018012B49D1F81C11884207D12848012128
:1011100080F824112D48082101600EE02448D0F801
:101120001C01234991F81811884206D22048022157
:1011300080F8291125480821016022E01C4801217E
:1011400080F824111948006850F00400174908601D
:101150001E480821016014E01548012180F824117F
:101160001248006850F00400104908601748082130
:10117000016006E00E48092180F829111348082172
:10118000016070470D48002141700C48002101703A
:101190007047000000C00920A8C10F4004C00240F1
:1011A00044C0024010C0014014C0014000C00140D2
:1011B000985A001000E100E020C00140245C0010BB
:1011C00014C009200CC0014004C0014018C00140F7
:1011D00008C0014080B572B6494A4A4B13604A4A7A
:1011E00032235360484AC0B290604748C9B2C160D8
:1011F00046494748424A1268904762B64248806969
:10120000002802D04048806901E03F48806902BD63
:1012100038B572B63C4C332565603B4CA0603A480B
:10122000C160394802613848436138493848344A16
:101230001268904762B634488069002802D032486C
:10124000806901E03048806932BD10B572B62E4B1E
:1012500034245C602C4BC0B298602B48C9B2C1608A
:101260002948026129492A48254A1268904762B6EE
:1012700025488069002802D02348806901E022487F
:10128000806910BD80B572B61D4A1E4B13601E4AA0
:10129000352353601C4AC0B290601B48C9B2C1607C
:1012A0001A491B48164A1268904762B61648806968
:1012B000002802D01448806901E01348806902BD0B
:1012C00080B510210F20FFF785FF124A10210F2053
:1012D000FFF7BBFF10210F20FFF7D4FF082800D134
:1012E000FEE710210F20FFF775FF0A4B4FF48072C5
:1012F00009494FF47040FFF78BFF01BD000000006B
:101300003C5C0010F11FFF1FCC5B0010E45B001081
:10131000D05B0010A08601001C5B00102DE9F64D8B
:1013200003B4C1F30A5040F2FF7184B088420CD17B
:1013300005980027000304BF0498002802D10598EF
:10134000002817D4DDE904010EE101280BDA04A816
:1013500000F050F9012806DB00F06EF9222101604F
:101360000020834900E1059A40F2FE3161F31E52EC
:101370000592471A0598002808D500F05DF921214B
:1013800001604FF0FF306FF00041EDE0DDE9040156
:10139000784A794B00F056F909D2DDE904230020A0
:1013A0004FF0804100F066F9CDE904017F1EDDE9D0
:1013B00004230020714900F02FFADDE904230446DC
:1013C0000D4600206E4900F027FA02460B462046E3
:1013D000294600F095FA064688463246434600F014
:1013E00049F982468B466748674952465B4600F09A
:1013F00041F9664A664B00F00FFA52465B4600F030
:1014000039F9644A644B00F007FA52465B4600F033
:1014100031F9624A624B00F0FFF952465B4600F038
:1014200029F9604A604B00F0F7F952465B4600F03C
:1014300021F95E4A5E4B00F0EFF952465B4600F040
:1014400019F95C4A5C4B00F0E7F952465B4600F044
:1014500011F902460B462046294600F075FB32463C
:10146000434600F007F90646884638B200F02CFCE7
:10147000074607988B46C8B9504851493A465B46DB
:1014800000F0F8F83246434600F05EFB22462B4659
:1014900000F0C2F904460D464FF0404049493A4633
:1014A0005B4600F0E7F822462B465BE0012836DB7E
:1014B0000020454922462B4600F0DCF8CDE9020128
:1014C0002246424842492B4600F0D4F8CDE90001BB
:1014D0003A46404840495B4600F0CCF804460D4689
:1014E000304641463D4A384B00F0C4F802460B46B0
:1014F0002046294600F028FBDDE9002300F08CF9A6
:10150000DDE9022300F088F904460D460020344945
:101510003A465B4600F0AEF822462B4622E04FF0FA
:10152000C040304922462B4600F0A4F8CDE9000126
:1015300022462D482D492B4600F09CF804460D46C6
:101540002B4828493246434600F094F802460B46A1
:101550002046294600F0F8FADDE9002300F05CF9A6
:101560003A465B4600F058F908B0BDE8F08D00003F
:101570000000F0FFCD3B7F669EA0E63F0000F0BF7D
:101580000000F03FF7DE29BFD8F8C23FF4B3FECC2D
:101590001A99C33F62CB68D96F46C73FC6C912DAF2
:1015A000C471CC3F4AE98A942449D23FF75F9799A6
:1015B0009999D93FBC5555555555E53F9EBC9AF76D
:1015C0001C7D7F3E422EE63F7BCBDB3FABA6320E3F
:1015D000E526553E7CC4BC7FDE27743E0EE526150D
:1015E0001344D33F4715F73F44DF5DF80BAE543E3D
:1015F000FE822B6530B4436803F0004201211B03D7
:101600001B0B436004BF0368002B08D10DE0036887
:10161000DD0F45EA440444605B000360491E4468F2
:10162000E302F4D523031B0B436043681A43426073
:10163000084630BC70470000014800F05BBB00006A
:10164000140000104FF4001C1CEB410F94BF1CEB66
:10165000430F09E041EA030C50EA4C0C52EA0C0C2F
:1016600003D2994208BF9042704714BF8B42824216
:1016700070470000B0B581EA030C0CF0004C40F25A
:10168000FF7515EA11541DBF15EA1357AC42AF425E
:1016900039E0E41923EA455343F48013C90241F0C9
:1016A000004141EA505EC7021100A7FB0202002878
:1016B0004FF00000EEFB01204FF00001E3FB07219B
:1016C00018BF42F00102401800214941E3FB0E011E
:1016D000A4F580640F0302D252004041494154F105
:1016E00001046CDD470872F1004250F1000051EB3B
:1016F0000451A1F580115CBF41EA0C01B0BD4CEA78
:1017000005510020B0BD05EA1357AC4214BFAF42EB
:1017100041E050EA410E1CBF52EA430E02E061462E
:101720000020B0BD24423C441BD15FEA070EF6D036
:10173000090302BF01460020AEF1140EB1FA81F791
:10174000AEEB070401FA07FE0C37C7F1200100FADF
:1017500007F7C8404EEA000E23EA455343F48013CE
:10176000A2E733F00043B3FA83F704BFB2FA82FE74
:1017700077440B3FE41BB7F1200E2FBF02FA0EF3A4
:10178000BB40C7F1200E22FA0EFE38BF43EA0E031B
:10179000BA40641C82E750EA410E14BF52EA430E7D
:1017A0006FF000014FF4001717EB430F8ABF194683
:1017B00017EB410FB5E74CEA05510020B0BDD4F15D
:1017C0000104B4F120070FDAC4F12007520828BF42
:1017D00042F0010210FA07F501FA07F7E1BF2A43C8
:1017E000E0403843E1400FE0352C98DCC7F120049D
:1017F00052EA400220FA07F218BF42F0010231FA21
:1018000007F0A1400A43002172F1004250F10000AC
:1018100051EB0C01B0BD000070B44FF0004591EAEF
:10182000030C44BF6B4000F099B900BF841A71EB00
:10183000030603D2001BB141121973414FF4001C7F
:101840001CEB410F34BF7CEB430443E00C0DA4EBD5
:101850001356352E50DC45EAC323DB0A45EAC12185
:10186000C912B6F120050DDD63FA05F6EB4086EAF4
:101870000305124218BF45F00105C01851F10001DF
:101880000CD213E062FA06F5F2405540F3415A409B
:10189000B340F3405A408018594107D349085FEAE2
:1018A00030005FEA350528BF45F0010501F58011DC
:1018B000420875F1004250F1000041EB045170BC48
:1018C0004FF4001C1CEB410F38BF70470020090D7E
:1018D000090570471CEB410F10D252EA43060BD0AA
:1018E000BCEB410F05D80C0DAB43661E342EB5DDA5
:1018F00002E0AB438018594170BC704770BC704720
:10190000F0B540F2FF7581EA030C0CF0004C15EACB
:1019100011541DBF15EA1357AC42AF42E5E0BC417C
:10192000C1F31301C3F31303801A994143F48013E5
:1019300004D2641E4000494180185941C90241EA5D
:101940005051B1FBF3F603FB1611A2FB0675D7EB62
:10195000C020A94102D2761E80185941C90241EA2D
:101960005051B1FBF3FE03FB1E11A2FB0E75D7EB2A
:10197000C020A94103D2AEF1010E8018594189025D
:1019800041EA9051760546EA8E2EB1FBF3F603FB51
:101990001611A2FB0675D7EB8020A94102D2761E54
:1019A00080185941C90241EA50514EEA060EB1FB76
:1019B000F3F603FB1611A2FB0675D7EBC020A94175
:1019C00002D2761E80185941C90241EA5051B1FB3A
:1019D000F3F703FB1711A2FB0735D3EBC020A94196
:1019E00067F100070CBF004247F0010766F3D527F7
:1019F0004FEA1E31B80814F5806412DDBD0775F199
:101A0000004250EB0E5051EB045111F5801F5CBFAA
:101A100041EA0C01F0BD4CF07F6141F0E041002053
:101A2000F0BDBD076D0840EA0E5041F48011D4F1BD
:101A30000104B4F120060ADAC4F120060200E040F5
:101A400001FA06F3E1401843B24015430EE0342C8E
:101A500013DCC6F1200445EA40056D0820FA06F2C1
:101A6000154321FA06F0A1400D43002175F1004213
:101A700050F1000051EB0C01F0BD00205FEA0C01B9
:101A8000F0BDCFB992185B41B3FA83F704BFB2FA45
:101A900082F6BF190B3FB7F120062FBF02FA06F3FB
:101AA000BB40C7F1200622FA06F638BF3343BA40DE
:101AB0001CB1E419641E33E77F4231F00041B1FAF2
:101AC00081F404BFB0FA80F6A4190B3CB4F12006EF
:101AD0002FBF00FA06F1A140C4F1200620FA06F655
:101AE00038BF3143A0403C1B1AE7AC421ABF05EA9D
:101AF0001357AF4212E050EA41061CBF52EA4306B8
:101B0000BFE750EA4107304661461CBF41EA055134
:101B1000F0BD52EA430C08BFC143F0BD00204FF4B2
:101B2000001616EB410F98BF16EB430F08BF16EBDC
:101B3000410F24BFC14305E016EB430F0CBF6146C4
:101B40004CEA0551F0BD000070B44FF0004591EA39
:101B5000030F44BF6B40FFF769BE00BF841A71EBEF
:101B6000030604D26E40001BB141121973414FF4B9
:101B7000001C1CEB410F34BF7CEB430684E00C0DD2
:101B8000A4EB1356362E7DDC012E43DC45EAC3233D
:101B900043EA525312BFD20292025B08240545EA7F
:101BA000C12141EA5051D2EBC020994125D407D13F
:101BB000B0FA80F610FA06F164D00020203608E072
:101BC000B1FA81F6B140C6F1200220FA02F21143C7
:101BD000B0404FEAF474B4EB465434F001064FEAD7
:101BE00074040AD8D6F50016760D04F00044F040CF
:101BF00061FA06F25040F1404840C00A40EA4150C4
:101C000021F0004128BF5FEA500550F1000044EB8D
:101C1000D12137E045EAC323DB0A45EAC121C90ADD
:101C2000B6F120050EDD42EA0242120CC5F1200693
:101C300003FA06F6EB4042EA06056D42984161F16F
:101C400000010DE062FA06F5F240554063FA06FC29
:101C500082EA0C02F3405A406D42904161EB03016D
:101C600011F4801F05D1641E620502D06D00404151
:101C7000494121F48011430875F1004350F10000FF
:101C800041EB045170BC70471CEB410F15D223F09F
:101C9000004352EA43060BD04FEA4C0CBCEB410F19
:101CA00004D80C0D661E342EB7DDEBE7801A99417F
:101CB00050EA410608BF0021E4E708BF1CEB430FD0
:101CC00028BF6FF00001DDE7010040F10780F44616
:101CD000404200F003F851F00041604709D0B0FAEB
:101CE00080F18840C91CC1F58461090501EBD02150
:101CF00040057047704700008048006850F440502D
:101D00007E49086001207E49096860F387117C489C
:101D1000016001207A49096860F30921784801606F
:101D200001207749096860F38B2175480160022022
:101D30007449096860F38711724801600220714993
:101D4000096860F309216F48016002206D49096844
:101D500060F38B216B4801606B48006850F008000D
:101D6000694908606848006850F0100066490860DA
:101D70006548006850F020006349086063486421AA
:101D80000160634864210160624864210160624827
:101D9000642101606148006850F001005F490860FB
:101DA0005E48006850F010005C4908605B480068BD
:101DB00050F02000594908605848006850F0400031
:101DC000564908605648006830F48050544908600D
:101DD0005348006830F4005051490860504800688A
:101DE00030F480404E4908604E48006850F00100D1
:101DF0004C4908604B48006850F0020049490860AF
:101E00004848006830F002004649086045480068CC
:101E100050F00800434908604348006850F0020051
:101E20004149086070473A4908603A4908603A49B0
:101E300008603A48006850F0100038490860374898
:101E4000006850F02000354908603448006850F0C0
:101E500040003249086070473148006850F48050B3
:101E60002F49086001202649096860F3871124483A
:101E7000016070472A48006850F400502849086003
:101E800001201F49096860F309211D48016070475E
:101E90002348006850F48040214908600120184917
:101EA000096860F38B211648016070471C48006880
:101EB00030F480501A4908601148006830F0C000C2
:101EC0000F49086070471648006830F40050144904
:101ED00008600B48006830F440700949086070479A
:101EE0000F48006830F480400D49086004480068DD
:101EF00030F440600249086070470000A8C10F40FC
:101F000010C0024050C0024040C00920188001406B
:101F100040800140448001404880014050800140A1
:101F20004C8001400480014014800140FF2212EAED
:101F3000D05C1DBF12EAD153944593422BE09C44E0
:101F4000D30780EA01021A4043EA002043EA012154
:101F5000A1FB0030410038BF40007CF17F010BDB6A
:101F6000FE294ADA5B0842EAC15153EA006373F181
:101F7000004C51EB10207047D1F1080CDCF120012E
:101F80002FDB5B0810FA01F10B4373F1004120FADB
:101F90000CF05041704794451CBF02EAD153934264
:101FA00080EA010202F000421DD0400019D0490031
:101FB00017D05BB9634514D00902B1FA81F3994097
:101FC000BCEB030CC00140F00040C1E70002B0FAD6
:101FD00080FC10FA0CF0B3EB0C0CC90141F000418D
:101FE000B6E71000704740000AD0490008D010F151
:101FF000807F94BF11F1807F02E042F0FF40704784
:10200000D043704780B52548002101602448052150
:102010000160FEF785FC0220FEF778F90320FEF749
:10202000A1F90020FEF711FF0020FEF79BF903E065
:10203000FFF7A8F8FEF7AAFC1A4840780028FBD062
:10204000184800780028F3D0012810D0022806D0C4
:102050001F2811D0212814D022281AD0ECE7FFF72E
:1020600091F80320FEF77EF900F0CAFFFCE7FFF7C6
:1020700089F8FEF742FDDFE7FFF784F8FEF75FFE21
:10208000DAE7FFF77FF8FEF7C7FD0020FEF76AF9F1
:10209000D2E7FFF777F8FEF75BFECDE7305C001084
:1020A000345C0010245C00104FEAF17CBCF1E04C81
:1020B0002CBFBCF5001F11E05FEA4C0C34BFBCF133
:1020C0007F5F2EE05FEA9C0C4FEA0C1C4FEA3C0C51
:1020D000C10071F100414CEB50707047C90241EAF8
:1020E0005051C00218BF41F0010141F000414FEAD8
:1020F0006C50C0F10900212810D240EACC7CCCF110
:10210000200C11FA0CF070F10040CCF1200C21FAF7
:102110000CF00CF0004C40EB0C0070474FEACC7018
:102120007047490011F5001F04D84FEACC10FF306A
:10213000C0057047C8177047543A5C50524F4A4523
:102140004B54455C4146435C4175746F6D617469E5
:1021500073696572756E675C4D61747261747A65DE
:102160005C4261736520506C6174655C42617365AB
:10217000506C6174652056302E7820436F6E7472F7
:102180006F6C5C42617365506C61746520436F6E67
:1021900074726F6C20424C2056302E3520465720EA
:1021A00056302E315C425020436F6E74726F6C5CFF
:1021B0006C69625C6E7669632E63000040F2FF7C9E
:1021C0001CEA115240F2FE33D21ACCBFD2F13503D1
:1021D00016E0B2F1150309DA6FEA4C53D340094215
:1021E00001D5401E59410020994370476FF000020D
:1021F000DA40094202D5801851F10001904370473E
:10220000352A09DA50EA41031CBF4FEA0C5101F1AB
:10221000804138BF0021002070470000F446400D87
:1022200040EAC120490006D200F00EF8004248BF43
:102230006FF00040604700F007F84FF0004188421F
:102240008CBF08464042604740F00040490DA1F570
:102250008061491C05D4D1F11F0154BFC840C0178B
:1022600070474FF0000070474100090E7F3915D4C8
:10227000D1F11F0114D4400007D2C00140F000404A
:10228000C84048BF6FF000407047C00140F00040B8
:10229000C8404CBF4FF0004040427047002070479C
:1022A00000424FF0004058BFC0437047284E564987
:1022B000435F574454203C3D20496E744E756D6217
:1022C00065722920262620284E5649435F504C4CE3
:1022D00031203E3D20496E744E756D626572290055
:1022E00010B5074979441831064C7C44163404E093
:1022F0000A68081D511888470146A142F8D110BD4F
:102300000800000050000000ABE5FFFF385C000053
:102310001800001000000000BFE4FFFF0C000000E8
:10232000700000000C00001000000000ABE4FFFF94
:10233000080000001C3D000000000010000000002C
:1023400097E4FFFF04000000A00D0000080000104B
:102350000000000000F009F8002801D0FFF7C0FFDE
:102360000020FFF74FFE00F002F80120704700F058
:1023700001B8000007463846FEF744FAFBE7C046BE
:10238000C046C046C046FFF7E5FF0022FEF7C6BFC5
:0C239000FFFFFFFFFFFFFFFF0000000049
:1030000080B5334800210160324801210160324817
:103010000078002806D0012812D0032831D00428D7
:103020004FD051E0FEF768FEFEF740FFFEF74BFF82
:10303000FEF756FFFDF7DCF927480121017046E055
:103040000220FDF763F90220FDF78CF901F008FE7C
:1030500002F0CEFD00F0D4FF00F0FDFF1F48007825
:10306000002807D01E480078002803D01D480078AB
:10307000002802D10120FDF775F9174803210170DE
:1030800025E00320FDF742F914480078002807D016
:1030900013480078002803D012480078002803D194
:1030A0000120FDF75FF902E00320FDF75BF90A4814
:1030B000042101700020FDF729F90320FDF752F9E2
:1030C00005E002F0CDF902E003480021017001BDE6
:1030D000405C0010445C00104D5C001008000010C3
:0C30E000090000100A00001001010100AE
:104000000120DFF88C19096860F39751DFF8800907
:104010000160DFF88009006830F48070DFF87419FF
:104020000860DFF87009006800090001DFF8641912
:1040300008600320DFF85C19096860F30711DFF8F6
:1040400054090160DFF84C09006850F48070DFF813
:1040500044190860704780B5DFF83C090121016010
:10406000DFF8380900210160DFF834090021016020
:10407000DFF8300900210170002005E0DFF8281981
:10408000411800220A71401CB0F5964FF6DBDFF8AC
:104090001C09006880088000DFF810190860022001
:1040A000DFF80C19096860F30101DFF80409016009
:1040B000DFF80009006840084000DFF8F8180860E1
:1040C000DFF8F008006830F00200DFF8E818086058
:1040D000DFF8E008006830F01000DFF8D81808605A
:1040E000DFF8D008006830F48070DFF8C818086086
:1040F000DFF8C008006830F40070DFF8B818086016
:10410000DFF8B008006830F48060DFF8A8180860B5
:10411000DFF8A008006830F48040DFF898180860E5
:10412000DFF89008006830F40040DFF88818086075
:10413000DFF85C08006830F44010DFF854180860BD
:104140000220DFF87418096860F31551DFF8680879
:104150000160DFF86008006850F08060DFF85418F4
:104160000860DFF85808006830F08060DFF84C180D
:104170000860DFF84C08006830F40060DFF8401891
:104180000860DFF83C08006830F48050DFF8301831
:104190000860DFF82C08006830F40050DFF82018C1
:1041A00008600220DFF80818096860F38301DFF86F
:1041B000000801600220DFF8F817096860F30921A0
:1041C000DFF8EC0701600220DFF8E417096860F30C
:1041D0001141DFF8DC0701600220DFF8D41709681D
:1041E00060F39341DFF8C80701600220DFF8C017D1
:1041F000096860F31551DFF8B80701600220DFF8A5
:10420000B017096860F31D71DFF8A4070160022090
:10421000DFF89C17096860F39F71DFF8940701606D
:104220000220DFF8A017096860F39751DFF89407C0
:1042300001600220DFF88C17096860F31961DFF86C
:10424000840701600220DFF87C17096860F39B6136
:10425000DFF870070160DFF87007006830F4400095
:10426000DFF864170860DFF86007006830F040701E
:10427000DFF854170860DFF85007006830F040603E
:10428000DFF844170860DFF82407006830F00C00FE
:10429000DFF818170860DFF81407006830F4407082
:1042A000DFF808170860DFF80407006830F44030D2
:1042B000DFF8F8160860DFF8F406006830F44020F4
:1042C000DFF8E8160860DFF8E406006830F4401014
:1042D000DFF8D8160860DFF8D406006830F04050E8
:1042E000DFF8C8160860DFF8C406006880008008A0
:1042F000DFF8B81608601021122000F02EF80D210A
:104300003A2000F02AF80B21112000F026F800F0E6
:10431000F2FA00F0D8FA00F0BEFA642000F018FBC0
:10432000022000F0A6FB012000F08EFB502000F0E0
:1043300092FB012000F096FB1221172000F00DF8EF
:104340006121182000F009F8BA21322000F005F8A8
:10435000DFF8E4080121017001BD70B582B00C00E6
:104360008DF80100DFF840168870DFF83C06C47055
:104370000025002600E00125EDB2002D1FD102220C
:10438000DFF8B818212000F0F2FE012301220DF120
:104390000101212000F0BFFF00A800F0D1FCDFF8F0
:1043A000A00890F82901082804D19DF80000E4B283
:1043B000A042E0D0F6B2032EDDD0761CDCE79DF8FB
:1043C0000000E4B2A0420FD1DFF8740890F8290190
:1043D000082809D1DFF86C080078002804D0DFF83D
:1043E00064080121017003E0DFF858080021017022
:1043F00073BD38B58DF80000DFF8AC158870002467
:10440000002500E00124E4B2002C14D10123012294
:1044100000A9212000F07FFF0DF1010000F090FCC9
:10442000DFF81C0890F829010828EBD0EDB2032D25
:10443000E8D06D1CE7E7DFF8080890F829010828A4
:1044400004D1DFF800080121017003E0DFF8F40770
:10445000002101709DF8010032BD0000F8B5112067
:10446000FCF7CDF81220FCF7CAF81A20FCF7C7F8C1
:104470001C20FCF7C4F872B6DFF8CC0700210170ED
:1044800000208DF80000002005E0DFF8C01741187B
:1044900000220A71401CB0F5964FF6DB0020FBF7B6
:1044A00061FF14E09DF80000401C8DF80000DFF86B
:1044B000F0040068B0F5165F05D2DFF8940790F8B5
:1044C000240101281CD0DFF8800701210170DFF8EA
:1044D00078070078002840F0CF8040F6AC20C2F288
:1044E00038300268016891423FF4FCAF0A003FF4A3
:1044F000F9AFDFF8AC040021016000208DF8000066
:1045000040F6B420C2F238300268016891423FF4AC
:10451000FCAF0A003FF4F9AFDFF88004002101602E
:10452000DFF87404012101604FF42B60C2F23830CF
:104530000268016891423FF4FCAF0A003FF4F9AF12
:10454000DFF854040068401CDFF84C140860DFF802
:1045500048040068022840F07F809DF80000002891
:104560006FD1DFF858040068C00B10F00100DFF8CD
:104570004C140968890B11F00101DFF8402412681E
:10458000920A12F00102DFF834341B685B0A13F060
:104590000103DFF828442468240A14F00104DFF83A
:1045A0001C542D68C5F30015DFF810643668C6F397
:1045B0004006DFF808743F6817F0010757EA46061F
:1045C00056EA850555EAC40454EA031353EA421235
:1045D00052EA811151EAC0108DF801009DF80100E6
:1045E000DFF870160978884214D3DFF8B403006846
:1045F000DFF85816401800790121DFF8A82392F956
:10460000002091400843DFF898130968DFF83C2642
:1046100089180871DFF88C030078401CDFF88413D8
:104620000870DFF88003007808280AD1DFF87003EB
:104630000068401CDFF868130860DFF86803002199
:104640000170DFF858030068401CDFF85013086061
:10465000DFF8440300210160DFF840030068B0F593
:10466000A07FFFF461AF9DF8000001287FF41AAF2E
:1046700000208DF800001AE70320FBF773FE1120DD
:10468000FBF7A2FF1220FBF79FFF1A20FBF79CFF0E
:104690001C20FBF799FF62B6F1BD00002DE9F8433D
:1046A00004001120FBF7ABFF1220FBF7A8FF1A2034
:1046B000FBF7A5FF1C20FBF7A2FF72B6DFF8880509
:1046C00000210170002700260025002005E0DFF80A
:1046D0007C15411800220A71401CB0F5964FF6DB9C
:1046E0000020FBF73FFE0FE06D1CAD480068B0F501
:1046F000964F05D2DFF8580590F82401012818D00C
:10470000DFF8440501210170DFF83C05007800283E
:1047100040F09F8040F6AC20C2F238300268016859
:1047200091423FF4FCAF0A003FF4F9AF9C480021EE
:10473000016040F6B420C2F238300268016891424C
:104740003FF4FCAF0A003FF4F9AF3C2F01D1761CD7
:1047500000279248002101608F48012101604FF439
:104760002B60C2F238300268016891423FF4FCAF1E
:104770000A003FF4F9AF88480068401C8649086089
:1047800085480068022857D1E4B2B4424CD1002DCC
:104790004AD18A480068C00B10F0010087490968B7
:1047A000890B11F00101854A1268920A12F0010288
:1047B000824B1B685B0A13F00103DFF800C2DCF8D0
:1047C00000C05FEA1C2C1CF0010CDFF8F0E1DEF801
:1047D00000E0CEF3001EDFF8E481D8F80080C8F3D3
:1047E0004008DFF8D891D9F8009019F0010959EA8A
:1047F000480858EA8E0E5EEACC0C5CEA031353EAD2
:10480000421252EA811151EAC0108DF8000064484A
:104810000068DFF8381440189DF8001001716048F6
:104820000068401C5E4908605B48002101605B48ED
:104830000068401C5949086058480068B0F5A07FDE
:104840008DD3002D00D17F1C012D7FF44DAF0025AD
:104850004BE70320FBF786FDFDF728FBFDF7FCFA8D
:104860001120FBF7B1FE1220FBF7AEFE1A20FBF77A
:10487000ABFE1C20FBF7A8FE62B6BDE8F18380B555
:104880001320FFF7B6FD50F004000100C9B2132059
:10489000FFF763FD01BD80B51320FFF7AAFD10F0FF
:1048A000FB000100C9B21320FFF757FD01BD80B521
:1048B0001320FFF79EFD50F002000100C9B2132043
:1048C000FFF74BFD01BD80B51320FFF792FD10F0FF
:1048D000FD000100C9B21320FFF73FFD01BD80B507
:1048E0001320FFF786FD50F001000100C9B213202C
:1048F000FFF733FD01BD80B51320FFF77AFD10F0FF
:10490000FE000100C9B21320FFF727FD01BD38B535
:104910000420FFF76EFD04001020FFF76AFD05007C
:104920000720FFF766FD14F0030110F03F00C0B24E
:104930008002EDB2AA001043C9B20843FDF7C4F9E2
:104940005FF06632C44BFCF795FEFDF767FC32BDA5
:1049500038B5FDF7B9F95FF06632BF4BFCF7D0FF11
:10496000FDF75CFC10F003018410801210F03F058D
:10497000C9B20420FFF7F1FC2100C9B21020FFF7F3
:10498000ECFC2900C9B20720FFF7E7FC31BD0000AD
:104990000CC00240C8C10F40484E0010404E0010ED
:1049A000444E00103C4E00101800001008C0024099
:1049B00048C0024020C009204CC0024034C0092039
:1049C00040C0092050C0024010C00240F8B500208D
:1049D000FFF70FFD04000320FFF70BFDC0B2C30972
:1049E000C0F38015E4B2E609C4F38017C4F34010A5
:1049F000C4F3001114F00F02DBB25B1CEDB26C1CAF
:104A00006343F6B2741C6343FFB27C1C6343C0B2C1
:104A1000401C00FB03F0C9B2491C4843D2B20F212D
:104A200092FBF1F1491C4843F2BD80B50220FFF72B
:104A3000E0FC02BD80B56A20FFF7DBFC02BD80B55B
:104A40000120FFF7D6FC02BD80B50100C9B20220EB
:104A5000FFF783FC01BD80B50100C9B26A20FFF7F2
:104A60007CFC01BD80B50100C9B20120FFF775FCD7
:104A700001BDF8B5FDF728F9FDF787FC04000D002E
:104A800000205FF08041FDF780FC02000B00200059
:104A90002900FCF735FFFDF791FBFDF7BFFB002177
:104AA0000024002200230025002600275FF0000CD0
:104AB0005FF0000E012800DB8022022800DB40238B
:104AC000032800DB8025042800DB4026052800DBC6
:104AD0002027062801DB5FF0100C072801DB5FF0C0
:104AE0000F0E53EA020456EA050038435CEA000060
:104AF0005EEA0001C9B20020FFF72FFC2100C9B215
:104B00000320FFF72AFCF1BD002004E04F494118C3
:104B100000220A71401CB0F5964FF7DB4F48002188
:104B2000016000200BE04D490968484A8918FF22BE
:104B30000A714A490968491C484A1160401C2828E2
:104B4000F1D328200BE045490968404A8918DB2247
:104B50000A7142490968491C404A1160401C5028AA
:104B6000F1D350200BE03D490968384A8918B72233
:104B70000A713A490968491C384A1160401C782872
:104B8000F1D378200BE035490968304A891893221F
:104B90000A7132490968491C304A1160401CA0283A
:104BA000F1D3A0200BE02D490968284A89186F220B
:104BB0000A712A490968491C284A1160401CC82802
:104BC000F1D3C8200BE025490968204A89184B22F7
:104BD0000A7122490968491C204A1160401CF028CA
:104BE000F1D3F0200BE01D490968184A89182722E3
:104BF0000A711A490968491C184A1160401CB0F52D
:104C00008C7FF0D34FF48C700BE0144909680F4A85
:104C1000891800220A7111490968491C0F4A11605C
:104C2000401CB0F5A07FF0D30C480068B0F5964F5B
:104C3000FFF477AF704700004D4E00101A000010CF
:104C4000645900100A0000104C4E001018000010AB
:104C5000985A0010040000106666FE3F444E001093
:104C600080B5DFF8C807006830F04000DFF8BC17F7
:104C700008600220DFF8B817096860F31551DFF803
:104C8000B00701600220DFF8AC17096860F3155126
:104C9000DFF8A00701600220DFF89817096860F3C9
:104CA0009751DFF8900701600220DFF88C17096840
:104CB00060F31551DFF8800701600220DFF87817F4
:104CC000096860F39751DFF870070160DFF86C073F
:104CD000006850F48060DFF864170860DFF85C0754
:104CE000006850F40060DFF854170860DFF83C07F4
:104CF000006850F04000DFF834170860DFF8400724
:104D0000FB210160DFF83C07F9210160DFF838077B
:104D1000082180F82911DFF83007012180F82411DB
:104D2000FCF730FADFF82407006830F48050DFF831
:104D30001C17086001BDDFF8100790F824017047C8
:104D4000DFF8041791F8281101292BD1DFF8F816A4
:104D5000D1F82011022911D30021C9B2DFF8E826C9
:104D6000D2F8202191420ED2C9B2DFF8DC268A188F
:104D700092F88220C9B20A54491CEEE7DFF8C8163F
:104D800091F882100170DFF8C006002180F8281128
:104D9000DFF8B406082180F82911DFF8AC0690F896
:104DA000290108E0DFF8A006042180F82911DFF8C6
:104DB000980690F82901704780B5DFF894060068DE
:104DC00010F0F80000F001F801BD80B5C0B2002875
:104DD0001CD0082823D0102821D0182839D020280A
:104DE00061D0282872D0302800F0EA80382800F0FE
:104DF000FA80402800F00081482800F00681502801
:104E000000F00C81582800F07181ABE1DFF81C063E
:104E100014210160DFF83C0608210160A6E1DFF8FB
:104E2000280690F82601DFF8201691F8251151EA9E
:104E30004000C0B200F0F1FADFF8F0050421016093
:104E4000DFF8100620210160DFF808060821016064
:104E50008CE1DFF8F40590F81801DFF8EC15D1F8D3
:104E60001C11884208D1DFF8C405006850F010001A
:104E7000DFF8B815086015E0DFF8CC0590F81801E8
:104E8000DFF8C415405C00F0C8FADFF8BC0590F804
:104E90001801401CDFF8B01581F81801DFF8B405DF
:104EA0000821016062E1DFF8840514210160DFF868
:104EB0009805052180F82911DFF88C05012180F87B
:104EC0002411DFF89005082101604FE1DFF8780533
:104ED00090F8180100281AD1DFF86C0590F8180135
:104EE000DFF86415405C00F098FADFF84005042113
:104EF0000160DFF8540590F81801401CDFF84815F0
:104F000081F81801DFF84C050821016057E0DFF84F
:104F1000380590F81801DFF83015D1F81C118842D7
:104F200020D2DFF8240590F8180100281AD0DFF805
:104F3000180590F81801DFF81015405C00F06DFAC4
:104F4000DFF8E80404210160DFF8FC0490F81801A0
:104F5000401CDFF8F41481F81801DFF8F804082188
:104F600001602CE0DFF8E00490F81801DFF8D814B5
:104F7000D1F81C11884222D1DFF8B004142101605D
:104F8000DFF8C404012180F82411DFF8BC040821F3
:104F900080F82911DFF8BC0408210160DFF8A804BB
:104FA00090F8270100280AD0DFF89C04D0F81C11E3
:104FB000C9B2DFF8940490F8260100F04CF9D5E06E
:104FC000DFF8680414210160DFF87C04052180F813
:104FD0002911DFF87404012180F82411DFF874042A
:104FE00008210160C2E0DFF8440424210160DFF8F9
:104FF000640408210160B9E0DFF830040421016095
:10500000DFF8500408210160B0E0DFF8200414212B
:105010000160DFF8400408210160A7E0DFF8280400
:1050200090F81901002821D1DFF81C04002180F834
:10503000191100F0F6F9DFF8101491F81911DFF8E2
:105040000824891881F88200DFF8FC0390F8190120
:10505000401CDFF8F41381F81901DFF8D0030421B4
:105060000160DFF8F003082101603EE0DFF8D803BB
:1050700090F81901DFF8D013D1F82011884222D21C
:10508000DFF8C40390F8190100281CD000F0C9F91A
:10509000DFF8B41391F81911DFF8AC23891881F8FF
:1050A0008200DFF8A40390F81901401CDFF8981380
:1050B00081F81901DFF8740304210160DFF894031B
:1050C0000821016011E0DFF8800390F81901DFF892
:1050D0007813D1F82011884207D1DFF87803042132
:1050E0000160DFF87003082101603FE0DFF858033A
:1050F00090F81901DFF85013D1F82011884222D21C
:1051000000F08FF9DFF8401391F81911DFF8382318
:10511000891881F88200DFF8140314210160DFF898
:105120002803012180F82811DFF81C03012180F8F1
:105130002411DFF81403082180F82911DFF8140383
:10514000082101600DE0B94814210160BE48012129
:1051500080F82811BC48012180F82411BD4808219D
:10516000016003E0B848092180F8291101BD70B53C
:1051700006000C0015001220FBF741FAFFF7DBFDDB
:10518000002807D1B048062180F82911AE4890F8D0
:1051900029015FE0AC48002180F82411AA480021D1
:1051A00080F81811A84880F82661A748EDB2C0F829
:1051B0001C51A548D0F81C0102280DD30020C0B214
:1051C000A149D1F81C11884209D2C0B2015DC0B218
:1051D0009D4A8154401CF2E79B48217801709A480F
:1051E000002180F825119848002180F827118F4868
:1051F000006850F020008D49086009E08B48006885
:10520000000705D59248006810F0F800FFF7DDFDB3
:105210008D4890F8240100280CD18F480068411E69
:105220008D4A11600028E9D10A20874981F82901B7
:10523000C0B20FE0002000E0401CB0F5967FFBD329
:105240001220FBF7C1F9844841F2883101607E48A1
:1052500090F8290170BD38B504000D001220FBF74D
:10526000CEF9FFF768FD002807D17748062180F8BE
:105270002911754890F829014CE0734890F82801ED
:10528000012807D17048072180F829116E4890F84D
:1052900029013FE06C48002180F824116A48002170
:1052A00080F81911684880F826416748EDB2C0F8C7
:1052B00020516548012180F825115C48006850F0B4
:1052C00020005A49086009E058480068000705D5E1
:1052D0005F48006810F0F800FFF777FD5A4890F833
:1052E000240100280CD15C480068411E5A4A116014
:1052F0000028E9D10A20544981F82901C0B209E007
:105300001220FBF761F9544841F2883101604E48A0
:1053100090F8290132BDF8B506000C0017001D00F9
:105320001220FBF76CF9FFF706FD002807D146486D
:10533000062180F82911444890F829016CE0424880
:10534000002180F824114048002180F818113E48BF
:1053500080F826613C48FFB2C0F81C713A48D0F88A
:105360001C0102280DD300203749D1F81C11C0B20E
:10537000814209D2C0B2015DC0B2334A8154401C9F
:10538000F2E73148217801702F48002180F8191187
:105390002D48EDB2C0F820512B48012180F827118B
:1053A0002948002180F825112048006850F020008D
:1053B0001E49086009E01D480068000705D524481B
:1053C000006810F0F800FFF700FD1F4890F8240176
:1053D000002817D120480068411E1F4A116001288B
:1053E000E9DA1948012180F824111B4841F288317B
:1053F00001601220FBF7E8F80A20134981F829011F
:10540000C0B209E01220FBF7DFF8134841F28831FF
:1054100001600D4890F82901F2BD1049C0B2086042
:1054200070470E480068C0B27047000000000A4094
:10543000ACC10F4000C0024040C0024068C0024002
:1054400010000A4014000A406459001000E100E016
:1054500004000A4018000A400000001008000A403A
:1054600010B5DFF84C074078002800F09F83DFF884
:105470004407006840084000DFF838170860DFF88C
:1054800030070078022878D0032800F088800428AC
:1054900000F09780062800F0A180072800F0CA805D
:1054A000082800F0EA80092800F00A810A2800F0A4
:1054B00033810B2800F044810C2800F057810D281F
:1054C00000F06F810E2800F07A810F2800F08581AE
:1054D000102800F09281112800F0A381122800F01A
:1054E000B081132800F0F381142800F00082152801
:1054F00000F02F82162800F03982172800F08382EE
:10550000182800F09382192800F0A6821A2800F0CB
:10551000B6821B2800F0C9821C2800F0DD821D28FD
:1055200000F0F5821E2800F01883212806D02228DA
:1055300000F02983232800F02B8337E3FBF722FEBA
:10554000002014E0C0B2DFF87016411891F8831003
:10555000DFF868261268DFF86836D2181171DFF8B4
:105560005C160968491CDFF854261160401CC0B263
:105570002A28E7DBFBF7A4FE18E3FBF703FEDFF8BE
:10558000440601210170DFF83C060078DFF824169C
:10559000096860F30001DFF81C06016006E3FBF711
:1055A000F1FDDFF8200600210170DFF81806007811
:1055B000DFF80016096860F30001DFF8F805016004
:1055C000F4E2FBF7DFFDFCF771FCFCF77CFCFCF779
:1055D00087FCDFF8F40500210170E7E2FBF7D2FD5C
:1055E0000020DFF8E8150978002901D050F001000B
:1055F000DFF8DC150978002901D050F00200DFF84F
:10560000D4150978002901D050F00400DFF8A8155E
:105610000122C1F81C21DFF8A0150870DFF8A405ED
:105620000078DFF89015096860F30001DFF8840561
:105630000160BBE2FBF7A6FD002000F0EAFADFF80C
:1056400078050221C0F81C11DFF88C050069DFF82D
:1056500068150870DFF8800500690012DFF858153A
:105660004870DFF860050078DFF84815096860F3D6
:105670000001DFF84005016098E2FBF783FD01209F
:1056800000F0C7FADFF830050221C0F81C11DFF87E
:1056900048054069DFF820150870DFF83C054069CF
:1056A0000012DFF814154870DFF818050078DFF8ED
:1056B0000415096860F30001DFF8F804016075E281
:1056C000FBF760FDDFF8E804C078DFF8E4140C793C
:1056D000C0B2FCF7A8FBE00702D5FCF7BDFB01E078
:1056E000FCF7E4FBA00702D5FCF7C4FB01E0FCF7E4
:1056F000EAFB600702D5FCF7CBFB01E0FCF7F0FB0F
:10570000DFF8C0040078DFF8AC14096860F300012A
:10571000DFF8A004016049E2FBF734FDDFF89004F4
:10572000C078DFF8B8140870DFF898040078DFF864
:105730008414096860F30001DFF87804016035E241
:10574000FBF720FDDFF86804C178DFF890040078EB
:10575000FEF703FEDFF86C040078DFF858140968E0
:1057600060F30001DFF84C0401601FE2FBF70AFD63
:10577000DFF844040121C0F81C11DFF86004007850
:10578000FEF737FEDFF830140870DFF838040078D1
:10579000DFF82014096860F30001DFF818040160E5
:1057A00004E2FBF7EFFCDFF81C040078DFF80414D8
:1057B000096860F30001DFF8FC030160F6E1FBF724
:1057C000E1FCDFF800040078DFF8E813096860F313
:1057D0000001DFF8E0030160E8E1FBF7D3FCFFF72D
:1057E00093F9DFF8E0030078DFF8C813096860F385
:1057F0000001DFF8C0030160D8E1FBF7C3FCDFF86C
:10580000B003C078DFF8D8130870DFF8B803007869
:10581000DFF8A013096860F30001DFF89803016066
:10582000C4E1FBF7AFFCFEF719FEDFF89803007840
:10583000DFF88013096860F30001DFF87803016086
:10584000B4E1FBF79FFCDFF87003DFF86413097A1B
:10585000C0F81C11002027E0DFF85413C978282273
:10586000DFF84C331B7902FB0131DFF84423527916
:105870005118DFF83C2392795118DFF83423D2799C
:105880005118C0B24118DFF83023C2F82C11DFF8EC
:105890002813D1F82C11DFF8282389180979C0B210
:1058A000DFF814238154401CC0B2DFF80C13D1F888
:1058B0001C118842D0D3DFF80C030078DFF8F41213
:1058C000096860F30001DFF8EC0201606EE1FBF7AC
:1058D00059FCB748C078FEF7E1FEDFF8E80200782F
:1058E000B449096860F30001B24801605EE1FBF76A
:1058F00049FCB148AE49097AC0F81C11002019E0F2
:10590000AB49C9784FF4A072A94B1B7902FB013156
:10591000A74A52795118C0B24118A74AC2F82C11AF
:10592000A549D1F82C11A64A89180979C0B2A24A12
:105930008154401CC0B2A049D1F81C118842DFD369
:10594000A04800789B49096860F30001994801600C
:105950002CE1FBF717FC00F071FB9A4800789549A1
:10596000096860F30001934801601FE1FBF70AFC3E
:105970008F48C078002808D0022818D00ED30428F9
:1059800027D01DD305282DD034E08B4895490978C0
:10599000017089489349497841702BE0914880789B
:1059A0008549087084488F49C978417022E08D4844
:1059B00000798149087080488A494979417019E025
:1059C000884880797C4908707B488649C97941704C
:1059D00010E08448007A7849087077488149497A0C
:1059E000417007E07F48807A7349087072487D49AA
:1059F000C97A4170734800786E49096860F3000104
:105A00006C480160D2E0FBF7BDFB6948C07868498B
:105A1000097910EAC110FFF72CF86A480078654947
:105A2000096860F3000163480160BFE0FBF7AAFB6F
:105A3000FEF7CCFF60490222C1F81C215E490870C4
:105A4000C0115D4948705F4800785A49096860F3A1
:105A5000000158480160A9E0FBF794FB5448C07866
:105A60005349097910EAC110FEF772FF55480078D2
:105A70005049096860F300014E48016096E0FBF769
:105A800081FBFEF744FF4C490222C1F81C214A4920
:105A90000870C011484948704A480078454909686B
:105AA00060F300014348016080E0FBF76BFB404876
:105AB000C078FEF7C9FF3E480079FEF7CCFF3C48AE
:105AC0004079FEF7CFFF3F4800783A49096860F314
:105AD00000013848016069E0FBF754FB36480321B8
:105AE000C0F81C11FEF7A1FF33490870FEF7A2FFB2
:105AF00031494870FEF7A3FF2F498870314800787C
:105B00002C49096860F300012A4801604EE0FBF768
:105B100039FB2748C078C00702D5FEF7E0FE01E058
:105B2000FEF7E9FE2248C078800702D5FEF7BFFEE7
:105B300001E0FEF7C8FE1E48C078400702D5FEF718
:105B40009EFE01E0FEF7A7FE1E480078194909688D
:105B500060F300011748016028E0FBF713FB1320F6
:105B6000FEF747FC14490122C1F81C2110F0070080
:105B700011490870134800780E49096860F3000164
:105B80000C48016012E0FBF7FDFAFBF7E1F80DE0CD
:105B9000FBF7F8FA08480221C0F81C110648124920
:105BA00009680170044811490968417010BD00BFBF
:105BB000245C001004400040985A0010CC5B001098
:105BC00018000010385C00104D5C00100800001038
:105BD000090000100A000010F85B0010485C00107B
:105BE00004000010185C0010405C0010445C0010C1
:105BF00080B59048002141718E48002101718D4887
:105C000000218171002000F004F8012000F001F86B
:105C100001BD80B5874908778648007F00285BD1A1
:105C2000844882210170834883214170814800218A
:105C3000817080480021C170012301227D495F20CD
:105C4000FFF769FB7B48012101717B48FFF778F87A
:105C50000123012279495F20FFF75DFB7848FFF7B8
:105C60006FF87448C0787349897851EA8010714997
:105C7000886070488068FCF727F8724A724BFBF71F
:105C8000F9FC02000B0000207049FBF75DFF0022C9
:105C90006F4BFBF7EFFC00226E4BFBF7BDFDFCF7F3
:105CA00003FA6449C8606348C1686B48FCF73EF971
:105CB000FCF7DAFA5F490861684890F8290108287A
:105CC00007D167480078002803D06548012101709A
:105CD00002E06348002101705648007F012851D13D
:105CE000544880210170534881214170514800215E
:105CF000817050480021C170012301224D495F206D
:105D0000FFF709FB4B48012101714B48FFF718F8D9
:105D10000123012249495F20FFF7FDFA4848FFF7B8
:105D20000FF84448C0784349897851EA80104149C6
:105D3000886040488068FBF7C7FF424A424BFBF748
:105D400099FC0022474BFBF795FCFCF7ADF939496C
:105D5000C8603848C1684048FCF7E8F8FCF784FAA6
:105D6000344948613D4890F82901082807D13E4848
:105D70000078002803D03C480121017002E03A4835
:105D8000002101702B48007F022851D1294884212D
:105D900001702848852141702648002181702548DE
:105DA0000021C1700123012222495F20FFF7B3FACD
:105DB0002048012101712048FEF7C2FF0123012282
:105DC0001E495F20FFF7A7FA1D48FEF7B9FF1948E3
:105DD000C0781849897851EA8010164988601548BA
:105DE0008068FBF771FF174A174BFBF743FC002253
:105DF0001C4BFBF73FFCFCF757F90E49C8600D48F8
:105E0000C1681548FCF792F8FCF72EFA0949886139
:105E1000124890F82901082807D113480078002873
:105E200003D011480121017002E00F4800210170E8
:105E300001BD0000F85B0010FA5B0010F95B001078
:105E4000FB5B001001BE8003FF00303F0000F03F0D
:105E500000A06440000044C000007A44645900106F
:105E60000800001000002E4009000010002004E08F
:105E70006F49411800220A71401CB0F5405F09D2F9
:105E80006B4941180979A129F2DB69494118FF22C0
:105E90000A71F1E77047802202FB0010704780B55D
:105EA00064480021C17063480021017041E06148ED
:105EB000417860480078FFF7EEFF5D4940180079AF
:105EC000FF2828D15B48C07819215A4A01FB0020DD
:105ED00058490978C171574800795649C97819223B
:105EE000544B02FB0131401852494978C171514865
:105EF0000079401C4F4908714E4800784D49897817
:105F0000884204D04B48C078401C4A49C870494870
:105F100048490978817047484078401C4549487095
:105F2000444840788028C2DB42480078401C414900
:105F3000087040480078602806DA3E480121017167
:105F40003C4800214170EBE701BD10B40020394905
:105F500001224A713749C978C9B24908354A917155
:105F600004E034494979491C324A5171C0B20028D1
:105F70000DD1304949792F4A927919232D4C03FBD1
:105F800002428918C9790029EBD10120EEE729489E
:105F90004079C0B2400827494871264840792549D0
:105FA00089791922234B02FB01314018C07921491C
:105FB00048712048807919211E4A01FB0020C079D0
:105FC0001C4988711B4840791B4908701A481949B7
:105FD0008979417010BC704738B516484079441F24
:105FE00014488079451F0AE0E4B221001148807905
:105FF000FFF751FF0E49401880210171641CE4B283
:106000000C484079401D8442EEDB0AE009484179A2
:10601000EDB22800FFF73FFF0549401880210171CC
:106020006D1CEDB203488079401D8542EEDB31BD29
:1060300018000010504E0010185C001080B5FFF7DB
:1060400015FFFFF72CFFFFF780FFFFF7C5FF01BD2E
:08605000881300000A000000A3
:040000050000237F55
:00000001FF
