:10000000B07800108F2300001F0900001F090000B6
:100010001F0900001F0900001F0900002636FFEF1E
:100020000000000000000000000000001F090000A8
:100030001F090000000000001F0900001F09000048
:100040001F0900009D040000BB0400001F09000000
:100050001F0900001F0900001F0900001F09000000
:100060001F0900001F090000E50E00001F09000025
:10007000215300001F0900001F0900001F09000094
:100080001F0900001F0900001F0900001F090000D0
:100090001F0900001F0900001F0900001F090000C0
:1000A0001F0900001F0900001F0900001F090000B0
:1000B0001F0900001F0900001F0900001F090000A0
:0400C0001F09000014
:10010000DFF84404006830F02000DFF83C14086099
:10011000DFF83804006830F00200DFF830140860BF
:10012000DFF82C04AA210160DFF8240455210160C6
:10013000DFF81804006840084000DFF81014086079
:10014000DFF80C04AA210160DFF8040455210160E6
:10015000DFF80004006880088000DFF8F81308600A
:100160004A20DFF8F413096860F30E01DFF8E803B2
:1001700001600120DFF8E013096860F31741DFF840
:10018000D8030160DFF8C803AA210160DFF8C003CB
:1001900055210160DFF8B403006850F00100DFF87A
:1001A000AC130860DFF8A803AA210160DFF8A00300
:1001B00055210160DFF8A4030068C0F380600028C7
:1001C000F8D0DFF89C0302210160DFF880030068AB
:1001D00050F00200DFF874130860DFF87403AA21FE
:1001E0000160DFF86C0355210160704780B5DFF8CE
:1001F0007403006850F03000DFF868130860DFF81F
:100200006803006850F00400DFF85C130860DFF852
:100210005C03006840084000DFF850130860DFF816
:100220004C03006850F00200DFF840130860DFF86C
:100230003C03006830F00200DFF830130860DFF89C
:100240003003006880088000DFF824130860DFF8BE
:100250002403006850F00100DFF818130860DFF88D
:100260001403006850F00200DFF808130860DFF89C
:100270000403006830F00400BE490860BE484FF433
:100280007A710160BD484FF4FA710160BC480068A2
:1002900050F00100BA490860B448006850F001000D
:1002A000B24908600321122000F0DFF9122000F0AB
:1002B0008BF962B601BDB348006850F00100B14946
:1002C0000860B048006850F00200AE490860AE48CF
:1002D000006830F00400AC490860AB48006850F09A
:1002E0000800A9490860A948006840084000A749DB
:1002F0000860A648006830F00200A4490860A448DD
:10030000006830F00800A2490860704780B5C0B2AC
:10031000002805D002281ED016D303280AD020E0DA
:100320009C48002101709948006850F001009749ED
:10033000086016E097480021017094480068400862
:100340004000924908600CE092480121017012209F
:1003500000F03AF905E08F4807210170122000F003
:1003600033F901BD80B5C0B2002805D002281ED0E7
:1003700016D303280AD020E0874800210170834863
:10038000006850F002008149086016E082480021B0
:1003900001707E48006830F002007C4908600CE083
:1003A0007D4801210170122000F00EF905E07A4825
:1003B00007210170122000F007F901BD002204E0BE
:1003C000491C764B9942FBD3521CC0B2B2EB400F92
:1003D0000DDA6E490968C1F3400191F001016B4BE0
:1003E0001B6861F3410369490B600021E9E770472D
:1003F0005C48006850F00C005A4908605A48006890
:1004000050F0020058490860654800684008400004
:10041000634908606248006850F002006049086063
:100420005F48006830F002005D4908605D48006880
:10043000800880005B4908605B48006850F001005C
:10044000594908605848006850F002005649086051
:100450005548006830F004005349086053484FF491
:100460007A61016052484FF47A6101605FF0402088
:10047000006850F001005FF04021086048480068C3
:1004800050F00100464908604A48006830F0020018
:100490004849086048480121017070475FF04020DA
:1004A000006850F001005FF0402108604348006898
:1004B00050F0020041490860704780B53548007827
:1004C000002817D03E48007832490978884205D084
:1004D0003B480078401C3A4908700BE02B48006804
:1004E000C0432A49096860F3000128480160344884
:1004F000002101702848007800281AD0314800787F
:1005000025490978884205D02E480078401C2D499D
:1005100008700EE01D480068C0F3400090F0010034
:100520001A49096860F34101184801602548002113
:1005300001701348006850F0010011490860122052
:1005400000F078F801BD0000A0C10F4080C00F404E
:100550008CC00F400CC10F4084C00F4088C00F40BA
:1005600004C10F40A8C10F40C4C00F400480004028
:1005700070800040148000400C80004018800040D3
:100580000080004040C0092000C0092054C009205C
:1005900014C00920A9700010AA700010C0C62D0058
:1005A0000440004070400040144000400C400040B7
:1005B0001840004000E100E09870001080E200E088
:1005C000AB700010AC70001038B50400304DB4F1C1
:1005D0001000212806D321222E492F4800F065F86B
:1005E00000F062F8103C600915EB80050120202125
:1005F000B4FBF1F202FB11429040286031BD38B5E6
:100600000400264DB4F11000212806D335222149DB
:10061000214800F04AF800F047F8103C600915EB5B
:10062000800501202021B4FBF1F202FB1142904031
:10063000286031BD38B50400194DB4F110002128EF
:1006400006D347221349144800F02FF800F02CF885
:10065000103C600915EB800501202021B4FBF1F26C
:1006600002FB11429040286031BD70B504000D00BE
:100670000C4EB4F11000212806D35B220549064830
:1006800000F013F800F010F8103CA619357070BD9A
:1006900000E100E03C210000BC22000080E100E01D
:1006A00080E200E000E400E07047B0B584B00024D0
:1006B00003468DF80A4008460A210DF109040A256F
:1006C00092FBF5F505EB8507A2EB4702303204F803
:1006D0000129491E2A46C9B2012A01DB0029EED1AF
:1006E00000AC0022091900F010F808B900F05CF81D
:1006F00004B0B0BD10B5044603E014F8010B00F0DF
:1007000056F820780028F8D110BDF8B504460D46FB
:1007100016001F460AD00FF25800FFF7EBFF3046D5
:10072000FFF7E8FF0FF25800FFF7E4FF2046FFF75E
:10073000E1FF0FF25400FFF7DDFF2846FFF7DAFF75
:100740000FF24800FFF7D6FF03E017F8010B00F0A7
:100750002EF838780028F8D10FF2340403E014F8AA
:10076000010B00F024F820780028F8D1F2BD000039
:10077000496E2066756E6374696F6E20000000001C
:10078000202D2D20000000003A0000002000000075
:10079000202D2D20617373657274696F6E20666100
:1007A000696C65640A000000012000F02BB810B5E8
:1007B000044682B014F1010F0AD08DF80000012226
:1007C00000A9012000F028F8012801D1204616BD1B
:1007D0004FF0FF3016BD10B450F8041B81B1026811
:1007E0001218001D50F8043BDC0744BFA9F10104B6
:1007F000E31852F8044B43F8044B091FF9D1EBE717
:1008000010BC704780B500F00FF8024A11001820A4
:10081000ABBEFBE72600020080B5002802D400F042
:1008200039F802BD002002BD80B500F053F8020087
:100830000023DB431068984204D011000220ABBEB5
:10084000002010605068984204D0111D0220ABBEF9
:100850000020506001BD000010B584B0040000F01D
:1008600039F8A100421810680021C94388420DD10F
:1008700007A00090002C01D1002000E0042001908E
:100880000320029069460120ABBE106004B010BD89
:100890003A74740080B5002901D1002002BD0128FE
:1008A00001D0022802D100F019F802BD00F026F8AC
:1008B00002BD50F8041B61B150F8042BD30744BFAC
:1008C000A9F101039A18002342F8043B091FFAD149
:1008D000EFE77047004870470C00001030B583B058
:1008E0000C0015000120FFF7B7FF0090019402955E
:1008F00069460520ABBE281A03B030BD10B584B0E0
:100900001300009001910293012204006946052022
:10091000ABBE181A2100C046C04604B010BDFEE7A9
:1009200080B5FFF7EDFBFFF7C6FCFFF75FFC01208A
:10093000FFF7ECFC0320FFF715FD00F029FA01BDDD
:1009400010B400224FF48053002101E09A18491C92
:10095000102907DA9042F9D302F6FF748442F5D3E6
:10096000080011E047F6FF73102101E09A18491CB6
:100970001E2908DA9042F9D302F5FE44FF3484427E
:10098000F4D3080000E0002010BC704710B500F060
:10099000F9FBDFF8D803002180F81C14DFF8CC0342
:1009A000002180F82414DFF8C4030021C0F82C14BF
:1009B000DFF8B8030021C0F82014DFF8B403C078D2
:1009C000DFF8AC13097951EA0020DFF8A0130860C2
:1009D000DFF89C034079DFF898138979090251EA1E
:1009E0000040DFF88C13C9790843DFF880130861F1
:1009F000DFF87803DFF874130969C0F83014DFF802
:100A00006C03DFF86C13097A8161DFF86403C07846
:100A1000DFF85C1309794840DFF8541349794840FE
:100A2000DFF84C1389794840DFF84413C97948400E
:100A3000DFF83813C861DFF83403C069DFF82C131E
:100A40008969884255D1DFF824030068000B401CF7
:100A5000DFF818134860DFF8140300682D21B0FB9D
:100A6000F1F0401CDFF804138860DFF80003006930
:100A7000FFF766FFDFF8F4120875002006E0BB49B7
:100A800011EB80014FF480520A62401CB74949685B
:100A9000884211D2B5494968491E8842EFD1B3490D
:100AA00011EB8001B14A12684FF48053B2FBF3F4AA
:100AB00004FB13240C62E8E7002005E0AB4911EBCE
:100AC00080012D224A63401CA8498968884213D2BC
:100AD000A6498968491E8842F0D1A44909682D2297
:100AE000B1FBF2F302FB1311A04A12EB8002516337
:100AF000E9E79E480321017310BD9E4890F88300EA
:100B00009C4991F8841051EA00209849C1F82804C2
:100B1000984890F88500974991F8861051EA00208E
:100B2000924988619148934991F88710C1610520E5
:100B300009E08E49C9698F4A821892F883205118BA
:100B40008A4AD161401C8949D1F82814874A12EB9E
:100B50008101496B491D8842EBD38448D0F82804B1
:100B60008249D1F82C14491C884204D07F48D0F81F
:100B7000280400283CD17D48C0697C4989698842A5
:100B800032D17A48D0F828042D214843002108E0CA
:100B90004218794BD218774BCB1893F887301371E2
:100BA000491C724AD2F82824704B13EB8202526B14
:100BB0009142EDD36D4890F82404401C6B4981F8B4
:100BC00024046A486949D1F82814C0F82C146B48E9
:100BD0000068C0F3400090F001006849096860F3C4
:100BE00041016648016006E060480321017302E0AC
:100BF0005E48062101735D4890F824045B498968CA
:100C0000884208D1594807210173594821210170B0
:100C1000574801214170704738B55448007D03287A
:100C200063DB5248007D514949680818411EC9B22A
:100C30004E48007D00F0CEFA002803D04B48012139
:100C4000017355E04E4A4948007D484949680818F3
:100C5000411EC9B24548007D00F0F7FA002803D0D4
:100C600042480121017343E000240FE0401C3F4B48
:100C70001B68984209D23D4B08251D73435C855C77
:100C8000AB42F3D0394809210173641C37484068EE
:100C900084422DD23548007D2118C9B23348007DE9
:100CA0002018C0B200F096FA002803D02F48012186
:100CB00001731DE0200000F02DF80500200000F079
:100CC00018F82F4B4FF480522B496918091D00F07A
:100CD0009FFA002803D025480221017308E0294922
:100CE0002248D0F830240020C1E7204805210173B4
:100CF00031BD002802D11D4800690AE01B4909697D
:100D00001A4A12EB8000C069401818490861174858
:100D100000697047002803D11448D0F820040DE082
:100D20001249D1F82014114A12EB8000C069401812
:100D30000E49C1F820040D48D0F8200470470D4832
:100D40000121C0F81C110948007B0A49087070474E
:100D500008480221C0F81C1106480B4909680170B7
:100D600004480A4909684170704700009069001002
:100D700084700010F86E00101800001054C0092094
:100D8000A08601001C0000109070001094700010EC
:100D900080B5DFF80004006830F00400DFF8F413D9
:100DA00008600220DFF8F013096860F38F31DFF884
:100DB000E80301600120DFF8E413096860F397514C
:100DC000DFF8D80301600120DFF8D013096860F371
:100DD0001961DFF8C80301600220DFF8C413096855
:100DE00060F39751DFF8B80301600220DFF8B01319
:100DF000096860F31961DFF8A8030160DFF8A40354
:100E0000FB210160DFF8A003F9210160DFF89C03FA
:100E100044210160DFF8980341F20401C0F8201179
:100E2000DFF88C03082180F82911DFF88403012101
:100E300080F8241100F0A6F9DFF87803006850F478
:100E40008060DFF87013086001BD80B5DFF86013C3
:100E500091F83011002944D1C0B200280FD0C0B29F
:100E6000400050F00100DFF850130860DFF8400345
:100E7000012180F830110020FFF748FA28E0DFF860
:100E80003C03407801281ED1DFF8300300780528A4
:100E900017D1DFF82C030068C0F38000002810D0C1
:100EA000DFF81803C078400050F00100DFF8141399
:100EB00008600020FFF72AFADFF8F402012180F829
:100EC000301100F05FF9BA4890F830010028D6D010
:100ED000BB48006850F00800B94908600220FFF7DD
:100EE0006DFA01BD80B5B848006810F0F80000F058
:100EF00001F801BDC0B2602819D0682826D070283A
:100F00002FD078283CD0802845D0902863D0A028C6
:100F100000F08180A82800F0A180B82800F0B880F7
:100F2000C02800F00B81C82800F0168122E1A048FB
:100F3000002180F824119E48002180F819119B4857
:100F400004210160A148082101601AE198480021AC
:100F500080F819119548242101609C4808210160FE
:100F60000FE19348002180F824119148002180F876
:100F700019118E480421016094480821016000E1A4
:100F80008B48002180F819118848242101608F487E
:100F900008210160F5E0864890F819018449D1F8EC
:100FA0002011884213D2824890F8190180494018D4
:100FB0008749096880F882107D4890F81901401C23
:100FC0007B4981F8190181480821016002E07F48CE
:100FD0000C210160D5E0764890F819017449D1F8E8
:100FE0002011884213D2724890F8190170494018B4
:100FF0007749096880F882106D4890F81901401C03
:101000006B4981F8190171480821016002E06F48BD
:101010000C210160B5E0664890F8820067490870CD
:10102000002009E0C0B265494118C0B2604A821888
:1010300092F88320CA70401CC0B20628F2DB5F48D9
:10104000012141705A48002180F8191158480121A6
:1010500080F824115D480821016092E05448002185
:1010600080F824115248002180F81811504890F857
:1010700018014F49405C564908604D4890F81801E6
:10108000401C4B4981F8180150480821016078E064
:10109000474890F81801002811D1454890F81801E8
:1010A0004349405C4A490860414890F81801401C97
:1010B0003F4981F818014548082101603DE03C485E
:1010C00090F818013A49D1F81C11884216D23848D4
:1010D00090F81801002811D0354890F818013449CB
:1010E000405C3B490860324890F81801401C304988
:1010F00081F818013548082101601EE02C4890F85D
:1011000018012B49D1F81C11884207D12848012128
:1011100080F824112D48082101600EE02448D0F801
:101120001C01234991F81811884206D22048022157
:1011300080F8291125480821016022E01C4801217E
:1011400080F824111948006850F00400174908601D
:101150001E480821016014E01548012180F824117F
:101160001248006850F00400104908601748082130
:10117000016006E00E48092180F829111348082172
:10118000016070470D48002141700C48002101703A
:101190007047000000C00920A8C10F4004C00240F1
:1011A00044C0024010C0014014C0014000C00140D2
:1011B000F86E001000E100E020C0014084700010D3
:1011C00014C009200CC0014004C0014018C00140F7
:1011D00008C0014080B572B6494A4A4B13604A4A7A
:1011E00032235360484AC0B290604748C9B2C160D8
:1011F00046494748424A1268904762B64248806969
:10120000002802D04048806901E03F48806902BD63
:1012100038B572B63C4C332565603B4CA0603A480B
:10122000C160394802613848436138493848344A16
:101230001268904762B634488069002802D032486C
:10124000806901E03048806932BD10B572B62E4B1E
:1012500034245C602C4BC0B298602B48C9B2C1608A
:101260002948026129492A48254A1268904762B6EE
:1012700025488069002802D02348806901E022487F
:10128000806910BD80B572B61D4A1E4B13601E4AA0
:10129000352353601C4AC0B290601B48C9B2C1607C
:1012A0001A491B48164A1268904762B61648806968
:1012B000002802D01448806901E01348806902BD0B
:1012C00080B510210F20FFF785FF124A10210F2053
:1012D000FFF7BBFF10210F20FFF7D4FF082800D134
:1012E000FEE710210F20FFF775FF0A4B4FF48072C5
:1012F00009494FF47040FFF78BFF01BD000000006B
:101300009C700010F11FFF1F2C7000104470001023
:1013100030700010A08601007C6F00102DE9F64DA2
:1013200003B4C1F30A5040F2FF7184B088420CD17B
:1013300005980027000304BF0498002802D10598EF
:10134000002817D4DDE904010EE101280BDA04A816
:1013500000F050F9012806DB00F06EF9222101604F
:101360000020834900E1059A40F2FE3161F31E52EC
:101370000592471A0598002808D500F05DF921214B
:1013800001604FF0FF306FF00041EDE0DDE9040156
:10139000784A794B00F056F909D2DDE904230020A0
:1013A0004FF0804100F066F9CDE904017F1EDDE9D0
:1013B00004230020714900F02FFADDE904230446DC
:1013C0000D4600206E4900F027FA02460B462046E3
:1013D000294600F095FA064688463246434600F014
:1013E00049F982468B466748674952465B4600F09A
:1013F00041F9664A664B00F00FFA52465B4600F030
:1014000039F9644A644B00F007FA52465B4600F033
:1014100031F9624A624B00F0FFF952465B4600F038
:1014200029F9604A604B00F0F7F952465B4600F03C
:1014300021F95E4A5E4B00F0EFF952465B4600F040
:1014400019F95C4A5C4B00F0E7F952465B4600F044
:1014500011F902460B462046294600F075FB32463C
:10146000434600F007F90646884638B200F02CFCE7
:10147000074607988B46C8B9504851493A465B46DB
:1014800000F0F8F83246434600F05EFB22462B4659
:1014900000F0C2F904460D464FF0404049493A4633
:1014A0005B4600F0E7F822462B465BE0012836DB7E
:1014B0000020454922462B4600F0DCF8CDE9020128
:1014C0002246424842492B4600F0D4F8CDE90001BB
:1014D0003A46404840495B4600F0CCF804460D4689
:1014E000304641463D4A384B00F0C4F802460B46B0
:1014F0002046294600F028FBDDE9002300F08CF9A6
:10150000DDE9022300F088F904460D460020344945
:101510003A465B4600F0AEF822462B4622E04FF0FA
:10152000C040304922462B4600F0A4F8CDE9000126
:1015300022462D482D492B4600F09CF804460D46C6
:101540002B4828493246434600F094F802460B46A1
:101550002046294600F0F8FADDE9002300F05CF9A6
:101560003A465B4600F058F908B0BDE8F08D00003F
:101570000000F0FFCD3B7F669EA0E63F0000F0BF7D
:101580000000F03FF7DE29BFD8F8C23FF4B3FECC2D
:101590001A99C33F62CB68D96F46C73FC6C912DAF2
:1015A000C471CC3F4AE98A942449D23FF75F9799A6
:1015B0009999D93FBC5555555555E53F9EBC9AF76D
:1015C0001C7D7F3E422EE63F7BCBDB3FABA6320E3F
:1015D000E526553E7CC4BC7FDE27743E0EE526150D
:1015E0001344D33F4715F73F44DF5DF80BAE543E3D
:1015F000FE822B6530B4436803F0004201211B03D7
:101600001B0B436004BF0368002B08D10DE0036887
:10161000DD0F45EA440444605B000360491E4468F2
:10162000E302F4D523031B0B436043681A43426073
:10163000084630BC70470000014800F05DBB000068
:10164000140000104FF4001C1CEB410F94BF1CEB66
:10165000430F09E041EA030C50EA4C0C52EA0C0C2F
:1016600003D2994208BF9042704714BF8B42824216
:1016700070470000B0B581EA030C0CF0004C40F25A
:10168000FF7515EA11541DBF15EA1357AC42AF425E
:1016900039E0E41923EA455343F48013C90241F0C9
:1016A000004141EA505EC7021100A7FB0202002878
:1016B0004FF00000EEFB01204FF00001E3FB07219B
:1016C00018BF42F00102401800214941E3FB0E011E
:1016D000A4F580640F0302D252004041494154F105
:1016E00001046CDD470872F1004250F1000051EB3B
:1016F0000451A1F580115CBF41EA0C01B0BD4CEA78
:1017000005510020B0BD05EA1357AC4214BFAF42EB
:1017100041E050EA410E1CBF52EA430E02E061462E
:101720000020B0BD24423C441BD15FEA070EF6D036
:10173000090302BF01460020AEF1140EB1FA81F791
:10174000AEEB070401FA07FE0C37C7F1200100FADF
:1017500007F7C8404EEA000E23EA455343F48013CE
:10176000A2E733F00043B3FA83F704BFB2FA82FE74
:1017700077440B3FE41BB7F1200E2FBF02FA0EF3A4
:10178000BB40C7F1200E22FA0EFE38BF43EA0E031B
:10179000BA40641C82E750EA410E14BF52EA430E7D
:1017A0006FF000014FF4001717EB430F8ABF194683
:1017B00017EB410FB5E74CEA05510020B0BDD4F15D
:1017C0000104B4F120070FDAC4F12007520828BF42
:1017D00042F0010210FA07F501FA07F7E1BF2A43C8
:1017E000E0403843E1400FE0352C98DCC7F120049D
:1017F00052EA400220FA07F218BF42F0010231FA21
:1018000007F0A1400A43002172F1004250F10000AC
:1018100051EB0C01B0BD000070B44FF0004591EAEF
:10182000030C44BF6B4000F099B900BF841A71EB00
:10183000030603D2001BB141121973414FF4001C7F
:101840001CEB410F34BF7CEB430443E00C0DA4EBD5
:101850001356352E50DC45EAC323DB0A45EAC12185
:10186000C912B6F120050DDD63FA05F6EB4086EAF4
:101870000305124218BF45F00105C01851F10001DF
:101880000CD213E062FA06F5F2405540F3415A409B
:10189000B340F3405A408018594107D349085FEAE2
:1018A00030005FEA350528BF45F0010501F58011DC
:1018B000420875F1004250F1000041EB045170BC48
:1018C0004FF4001C1CEB410F38BF70470020090D7E
:1018D000090570471CEB410F10D252EA43060BD0AA
:1018E000BCEB410F05D80C0DAB43661E342EB5DDA5
:1018F00002E0AB438018594170BC704770BC704720
:10190000F0B540F2FF7581EA030C0CF0004C15EACB
:1019100011541DBF15EA1357AC42AF42E5E0BC417C
:10192000C1F31301C3F31303801A994143F48013E5
:1019300004D2641E4000494180185941C90241EA5D
:101940005051B1FBF3F603FB1611A2FB0675D7EB62
:10195000C020A94102D2761E80185941C90241EA2D
:101960005051B1FBF3FE03FB1E11A2FB0E75D7EB2A
:10197000C020A94103D2AEF1010E8018594189025D
:1019800041EA9051760546EA8E2EB1FBF3F603FB51
:101990001611A2FB0675D7EB8020A94102D2761E54
:1019A00080185941C90241EA50514EEA060EB1FB76
:1019B000F3F603FB1611A2FB0675D7EBC020A94175
:1019C00002D2761E80185941C90241EA5051B1FB3A
:1019D000F3F703FB1711A2FB0735D3EBC020A94196
:1019E00067F100070CBF004247F0010766F3D527F7
:1019F0004FEA1E31B80814F5806412DDBD0775F199
:101A0000004250EB0E5051EB045111F5801F5CBFAA
:101A100041EA0C01F0BD4CF07F6141F0E041002053
:101A2000F0BDBD076D0840EA0E5041F48011D4F1BD
:101A30000104B4F120060ADAC4F120060200E040F5
:101A400001FA06F3E1401843B24015430EE0342C8E
:101A500013DCC6F1200445EA40056D0820FA06F2C1
:101A6000154321FA06F0A1400D43002175F1004213
:101A700050F1000051EB0C01F0BD00205FEA0C01B9
:101A8000F0BDCFB992185B41B3FA83F704BFB2FA45
:101A900082F6BF190B3FB7F120062FBF02FA06F3FB
:101AA000BB40C7F1200622FA06F638BF3343BA40DE
:101AB0001CB1E419641E33E77F4231F00041B1FAF2
:101AC00081F404BFB0FA80F6A4190B3CB4F12006EF
:101AD0002FBF00FA06F1A140C4F1200620FA06F655
:101AE00038BF3143A0403C1B1AE7AC421ABF05EA9D
:101AF0001357AF4212E050EA41061CBF52EA4306B8
:101B0000BFE750EA4107304661461CBF41EA055134
:101B1000F0BD52EA430C08BFC143F0BD00204FF4B2
:101B2000001616EB410F98BF16EB430F08BF16EBDC
:101B3000410F24BFC14305E016EB430F0CBF6146C4
:101B40004CEA0551F0BD000070B44FF0004591EA39
:101B5000030F44BF6B40FFF769BE00BF841A71EBEF
:101B6000030604D26E40001BB141121973414FF4B9
:101B7000001C1CEB410F34BF7CEB430684E00C0DD2
:101B8000A4EB1356362E7DDC012E43DC45EAC3233D
:101B900043EA525312BFD20292025B08240545EA7F
:101BA000C12141EA5051D2EBC020994125D407D13F
:101BB000B0FA80F610FA06F164D00020203608E072
:101BC000B1FA81F6B140C6F1200220FA02F21143C7
:101BD000B0404FEAF474B4EB465434F001064FEAD7
:101BE00074040AD8D6F50016760D04F00044F040CF
:101BF00061FA06F25040F1404840C00A40EA4150C4
:101C000021F0004128BF5FEA500550F1000044EB8D
:101C1000D12137E045EAC323DB0A45EAC121C90ADD
:101C2000B6F120050EDD42EA0242120CC5F1200693
:101C300003FA06F6EB4042EA06056D42984161F16F
:101C400000010DE062FA06F5F240554063FA06FC29
:101C500082EA0C02F3405A406D42904161EB03016D
:101C600011F4801F05D1641E620502D06D00404151
:101C7000494121F48011430875F1004350F10000FF
:101C800041EB045170BC70471CEB410F15D223F09F
:101C9000004352EA43060BD04FEA4C0CBCEB410F19
:101CA00004D80C0D661E342EB7DDEBE7801A99417F
:101CB00050EA410608BF0021E4E708BF1CEB430FD0
:101CC00028BF6FF00001DDE7010040F10980F44614
:101CD000404200F005F851F000416047010000BFAC
:101CE00009D0B0FA80F18840C91CC1F584610905AA
:101CF00001EBD02140057047704700008048006824
:101D000050F440507E49086001207E49096860F324
:101D100087117C48016001207A49096860F3092134
:101D20007848016001207749096860F38B21754884
:101D3000016002207449096860F3871172480160EC
:101D400002207149096860F309216F48016002208F
:101D50006D49096860F38B216B4801606B4800682E
:101D600050F00800694908606848006850F01000A9
:101D7000664908606548006850F0200063490860C3
:101D80006348642101606348642101606248642102
:101D900001606248642101606148006850F0010000
:101DA0005F4908605E48006850F010005C490860B8
:101DB0005B48006850F020005949086058480068A6
:101DC00050F04000564908605648006830F4805092
:101DD000544908605348006830F400505149086085
:101DE0005048006830F480404E4908604E48006812
:101DF00050F001004C4908604B48006850F0020068
:101E0000494908604848006830F0020046490860C7
:101E10004548006850F0080043490860434800689E
:101E200050F002004149086070473A4908603A4959
:101E300008603A4908603A48006850F01000384994
:101E400008603748006850F0200035490860344881
:101E5000006850F04000324908607047314800681F
:101E600050F480502F49086001202649096860F32A
:101E700087112448016070472A48006850F40050D8
:101E80002849086001201F49096860F309211D489D
:101E9000016070472348006850F480402149086081
:101EA00001201849096860F38B21164801607047CA
:101EB0001C48006830F480501A49086011480068D6
:101EC00030F0C0000F49086070471648006830F4D1
:101ED0000050144908600B48006830F4407009490C
:101EE000086070470F48006830F480400D49086072
:101EF0000448006830F44060024908607047000000
:101F0000A8C10F4010C0024050C0024040C009208C
:101F100018800140408001404480014048800140D9
:101F2000508001404C8001400480014014800140F9
:101F3000FF2212EAD05C1DBF12EAD15394459342AE
:101F40002BE09C44D30780EA01021A4043EA0020B8
:101F500043EA0121A1FB0030410038BF40007CF181
:101F60007F010BDBFE294ADA5B0842EAC15153EAE2
:101F7000006373F1004C51EB10207047D1F1080C55
:101F8000DCF120012FDB5B0810FA01F10B4373F148
:101F9000004120FA0CF05041704794451CBF02EA02
:101FA000D153934280EA010202F000421DD040006A
:101FB00019D0490017D05BB9634514D00902B1FAB2
:101FC00081F39940BCEB030CC00140F00040C1E735
:101FD0000002B0FA80FC10FA0CF0B3EB0C0CC90153
:101FE00041F00041B6E71000704740000AD04900B8
:101FF00008D010F1807F94BF11F1807F02E042F0A1
:10200000FF407047D043704780B5254800210160EC
:10201000244805210160FEF783FC0220FEF776F9D3
:102020000320FEF79FF90020FEF70FFF0020FEF7C8
:1020300099F903E0FFF7A6F8FEF7A8FC1A484078E4
:102040000028FBD0184800780028F3D0012810D0D1
:10205000022806D01F2811D0212814D022281AD0F7
:10206000ECE7FFF78FF80320FEF77CF900F0C8FFDC
:10207000FCE7FFF787F8FEF740FDDFE7FFF782F8A0
:10208000FEF75DFEDAE7FFF77DF8FEF7C5FD0020FD
:10209000FEF768F9D2E7FFF775F8FEF759FECDE7CE
:1020A0009070001094700010847000104FEAF17C62
:1020B000BCF1E04C2CBFBCF5001F11E05FEA4C0CFA
:1020C00034BFBCF17F5F2EE05FEA9C0C4FEA0C1C32
:1020D0004FEA3C0CC10071F100414CEB507070476D
:1020E000C90241EA5051C00218BF41F0010141F05C
:1020F00000414FEA6C50C0F10900212810D240EA9B
:10210000CC7CCCF1200C11FA0CF070F10040CCF139
:10211000200C21FA0CF00CF0004C40EB0C00704746
:102120004FEACC707047490011F5001F04D84FEA00
:10213000CC10FF30C0057047C8177047543A5C5048
:10214000524F4A454B54455C4146435C4175746F60
:102150006D61746973696572756E675C4D617472E7
:1021600061747A655C4261736520506C6174655C72
:1021700042617365506C6174652056302E7820433F
:102180006F6E74726F6C5C42617365506C617465E4
:1021900020436F6E74726F6C20424C2056302E3587
:1021A0002046572056302E325C425020436F6E74CA
:1021B000726F6C5C6C69625C6E7669632E630000A2
:1021C00040F2FF7C1CEA115240F2FE33D21ACCBF1F
:1021D000D2F1350316E0B2F1150309DA6FEA4C5378
:1021E000D340094201D5401E594100209943704710
:1021F0006FF00002DA40094202D5801851F1000167
:1022000090437047352A09DA50EA41031CBF4FEA70
:102210000C5101F1804138BF0021002070470000BF
:10222000F446400D40EAC120490006D200F014F8FF
:10223000004248BF6FF00040604700F00DF84FF0DB
:10224000004188428CBF084640426047400D40EA4A
:10225000C120490080F00D8040F00040490DA1F5FB
:102260008061491C05D4D1F11F0154BFC840C0177B
:1022700070474FF0000070474100090E7F3915D4B8
:10228000D1F11F0114D4400007D2C00140F000403A
:10229000C84048BF6FF000407047C00140F00040A8
:1022A000C8404CBF4FF0004040427047002070478C
:1022B00000424FF0004058BFC0437047284E564977
:1022C000435F574454203C3D20496E744E756D6207
:1022D00065722920262620284E5649435F504C4CD3
:1022E00031203E3D20496E744E756D626572290045
:1022F00010B5074979441831064C7C44163404E083
:102300000A68081D511888470146A142F8D110BD3E
:1023100008000000500000009BE5FFFF98700000DF
:102320001800001000000000AFE4FFFF0C000000E8
:10233000700000000C000010000000009BE4FFFF94
:102340000800000020430000000000100000000012
:1023500087E4FFFF04000000980D00000800001053
:102360000000000000F009F8002801D0FFF7C0FFCE
:102370000020FFF749FE00F002F80120704700F04E
:1023800001B8000007463846FEF73CFAFBE7C046B6
:10239000C046C046C046FFF7E5FF0022FEF7BEBFBD
:0C23A000FFFFFFFFFFFFFFFF0000000039
:1030000080B5354800210160344802210160344810
:103010000078002806D0012815D0032834D00428D1
:1030200052D054E0FEF76AFE1920FEF7FEFEFEF7CE
:1030300015FFFEF721FFFEF72DFFFDF7D9F9284810
:103040000121017046E00220FDF760F90220FDF742
:1030500089F902F0B9F803F0D5F800F0D1FF00F0DB
:10306000FAFF20480078002807D01F480078002881
:1030700003D01E480078002802D10120FDF772F924
:1030800017480321017025E00320FDF73FF915489B
:103090000078002807D014480078002803D013488F
:1030A0000078002803D10120FDF75CF902E003203D
:1030B000FDF758F90A48042101700020FDF726F9B0
:1030C0000320FDF74FF905E002F07EFC02E0044822
:1030D0000021017001BD00BFA0700010A47000109D
:1030E000AD70001008000010090000100A00001068
:0430F00001010100D9
:104000000120DFF84C1B096860F39751DFF8400B83
:104010000160DFF8C80D006830F48070DFF8BC1D67
:104020000860DFF8B80D006800090001DFF8AC1D7A
:1040300008600320DFF8A41D096860F30711DFF8AA
:104040009C0D0160DFF8940D006850F48070DFF87B
:104050008C1D0860704780B5DFF8F80A0121016007
:10406000DFF8F40A00210160DFF8F00A00210160A6
:10407000DFF8EC0A00210170002005E0DFF8E41A07
:10408000411800220A71401CB0F5964FF6DBDFF8AC
:10409000D80A006880088000DFF8CC1A0860022087
:1040A000DFF8C81A096860F30101DFF8C00A01608F
:1040B000DFF8BC0A006840084000DFF8B41A086066
:1040C000DFF8AC0A006830F00200DFF8A41A0860DC
:1040D000DFF89C0A006830F01000DFF8941A0860DE
:1040E000DFF88C0A006830F48070DFF8841A08600A
:1040F000DFF87C0A006830F40070DFF8741A08609A
:10410000DFF86C0A006830F48060DFF8641A086039
:10411000DFF85C0A006830F48040DFF8541A086069
:10412000DFF84C0A006830F40040DFF8441A0860F9
:10413000DFF81C0A006830F44010DFF8141A086039
:104140000220DFF89C1C096860F31551DFF8900C21
:104150000160DFF81C0A006850F08060DFF8101A78
:104160000860DFF8800C006830F08060DFF8741CB5
:104170000860DFF8740C006830F40060DFF8681C39
:104180000860DFF8640C006830F48050DFF8581CD9
:104190000860DFF8540C006830F40050DFF8481C69
:1041A00008600220DFF8C419096860F38301DFF8B2
:1041B000BC0901600220DFF8B419096860F3092125
:1041C000DFF8A80901600220DFF8A019096860F390
:1041D0001141DFF8980901600220DFF890190968A1
:1041E00060F39341DFF8840901600220DFF87C1955
:1041F000096860F31551DFF8740901600220DFF8E7
:104200006C19096860F31D71DFF860090160022014
:10421000DFF85819096860F39F71DFF850090160F1
:104220000220DFF8D81C096860F39751DFF8CC0C46
:1042300001600220DFF8C41C096860F31961DFF82F
:10424000BC0C01600220DFF8B41C096860F39B61BC
:10425000DFF8A80C0160DFF8A80C006830F440001B
:10426000DFF89C1C0860DFF8980C006830F04070A4
:10427000DFF88C1C0860DFF8880C006830F04060C4
:10428000DFF87C1C0860DFF8E008006830F00C0004
:10429000DFF8D4180860DFF8D008006830F4407008
:1042A000DFF8C4180860DFF8C008006830F4403058
:1042B000DFF8B4180860DFF8B008006830F4402078
:1042C000DFF8A4180860DFF8A008006830F4401098
:1042D000DFF894180860DFF89008006830F040506C
:1042E000DFF884180860DFF8800800688000800824
:1042F000DFF8741808601021122000F02FF80D214B
:104300003A2000F02BF80B21112000F027F800F0E4
:10431000A9FD00F08FFD00F075FD4FF4FA7000F07C
:10432000CEFD012000F049FE012000F031FE1920F1
:1043300000F035FE012000F039FE1221172000F0B8
:104340000DF86121182000F009F8BA21322000F0A0
:1043500005F8DFF8B00B0121017001BD70B582B026
:104360000C008DF80100DFF8FC178870DFF8F40707
:10437000C4700025002600E00125EDB2002D1FD1FC
:104380000222DFF8841B212001F0A5F9012301227C
:104390000DF10101212001F072FA00A800F084FF64
:1043A000DFF8680B90F82901082804D19DF8000077
:1043B000E4B2A042E0D0F6B2032EDDD0761CDCE7FA
:1043C0009DF80000E4B2A0420FD1DFF8400B90F856
:1043D0002901082809D1DFF8A80D0078002804D0A9
:1043E000DFF89C0D0121017003E0DFF8940D00213E
:1043F000017073BD38B58DF80000DFF8681788705C
:104400000024002500E00124E4B2002C14D1012393
:10441000012200A9212001F032FA0DF1010000F083
:1044200043FFDFF8E80A90F829010828EBD0EDB245
:10443000032DE8D06D1CE7E7DFF8D00A90F82901DA
:10444000082804D1DFF8380D0121017003E0DFF8FE
:10445000300D002101709DF8010032BDF0B583B030
:104460001120FCF7CCF81220FCF7C9F81A20FCF751
:10447000C6F81C20FCF7C3F872B6DFF8080D00215F
:104480000170DFF8040D0078DFF8001D0978401A8C
:10449000FDF71AFC02000B000020DFF8F41CFDF70A
:1044A0002FFAFDF7D3FE0400DFF8E80C0078DFF800
:1044B000DC1C0978401A00FB04F0643801900020ED
:1044C0008DF80000DFF8C40C0078D0F1FF008DF803
:1044D0000200002005E0DFF8381A411800220A71B6
:1044E000401CB0F5964FF6DB0020FBF73BFF0EE0DB
:1044F0009DF80000401C8DF80000DFF860060068A1
:10450000B0F5165F1CD3DFF87C0C01210170DFF8D9
:10451000740C0078002840F0D28040F6AC20C2F243
:1045200038300268016891423FF4FCAF0A003FF462
:10453000F9AFDFF828060021016000208DF80000A7
:1045400040F6B420C2F238300268016891423FF46C
:10455000FCAF0A003FF4F9AFDFF83C0C002101602A
:10456000DFF8F005012101604FF42B60C2F2383012
:104570000268016891423FF4FCAF0A003FF4F9AFD2
:10458000DFF8D0050068401CDFF8C8150860DFF8C8
:10459000C4050068022840F082809DF800000028D1
:1045A00072D1DFF840080068C00B10F00100DFF89E
:1045B00034180968890B11F00101DFF82828126806
:1045C000920A12F00102DFF81C381B685B0A13F034
:1045D0000103DFF810582D682D0A15F00105DFF8EA
:1045E00004683668C6F30016DFF8F8773F68C7F34B
:1045F000400CDFF8F0773F6817F0010E9DF802706D
:104600005EEA4C0C5CEA860656EAC50555EA0313D9
:1046100053EA421252EA811151EAC010381A8DF859
:10462000010001989DF8011001FB04F1884214D3A8
:10463000DFF828050068DFF8D81840180079012154
:10464000DFF81C2592F9002091400843DFF80C1593
:104650000968DFF8BC2889180871DFF804050078BC
:10466000401CDFF8FC140870DFF8F4040078082818
:104670000AD1DFF8E8040068401CDFF8E0140860A5
:10468000DFF8DC0400210170DFF80C0B0068401C2F
:10469000DFF8041B0860DFF8BC0400210160DFF8CC
:1046A000F80A0068B0F5A07FFFF45EAF9DF8000047
:1046B00001287FF41DAF00208DF800001DE70320C6
:1046C000FBF750FE1120FBF77FFF1220FBF77CFF6A
:1046D0001A20FBF779FF1C20FBF776FF62B6F7BDC7
:1046E0002DE9F043ADF5A26D0020002104E004AAFD
:1046F000002342F82130491CB1F5A07FF7D30021F7
:1047000008E044F60432DFF8083813EB8103002494
:10471000D450491CB1F57A7FF3D3012100E0491C44
:10472000F02967D20023012200E0521C282AF6D289
:10473000002407E0002314EBC20504AE002746F86E
:104740002570641C082CF0D2282505FB0125DFF814
:10475000C067AD192D792541ED07EBD514EBC205E6
:1047600004AE56F82550002B01D0002D2DD0002D81
:1047700003D0002B01D12B0027E0AB4205D1002B49
:1047800002D10300401C20E01FE044F60436DFF8AD
:10479000807717EB8307F65944F60437DFF870C7C4
:1047A0001CEB850C57F80C70BE1944F60437DFF883
:1047B00060C71CEB830C47F80C6044F60436DFF846
:1047C000507717EB85050027775144F60435DFF85D
:1047D000406716EB8306AD596D1C44F60436DFF8CE
:1047E000307717EB8307F55114EBC20504AE46F89A
:1047F0002530A6E7002000900020039000200290C2
:104800000020019000203AE044F60431DFF8002750
:1048100012EB80028958062930D344F60431DFF8C0
:10482000F02612EB8002895844F60432DFF8E036B5
:1048300013EB80030024D45044F60432009BDFF8CD
:10484000D04614EB8303D150019A44F60433009C04
:10485000DFF8BC5615EB84041B599A4208D244F683
:104860000432009BDFF8A84614EB8303D258019270
:10487000039A891803910099491C0091401C40F249
:10488000DC518842C0D303980199401A0099B0FBCB
:10489000F1F600274DE03000FDF720FA04000D008E
:1048A0003000FDF71BFA5FF03332DFF8F038FCF729
:1048B000E1FE22002B00FCF7AFFF02000B0014000A
:1048C0001D0044F60430DFF8481611EB870140580C
:1048D000FDF704FA22002B00FCF7B4FE28D244F6C0
:1048E0000430DFF82C1611EB87014058FDF7F6F97C
:1048F00002000B00904699463000FDF7EFF90400E6
:104900000D003000FDF7EAF95FF03332DFF88C3844
:10491000FCF7B0FE02000B0020002900FDF714F99F
:1049200042464B46FCF78EFE02D20298401C029093
:104930007F1C00988742AED3DFF86448DFF86458E4
:1049400002981438FDF7CAF922002B00FCF792FEFA
:10495000DFF85428C2E900010DF5A26DBDE8F0832F
:104960002DE9F84304001120FBF749FE1220FBF764
:1049700046FE1A20FBF743FE1C20FBF740FE72B6F2
:10498000DFF8000800210170002700260025002024
:1049900005E0DFF87C15411800220A71401CB0F5D3
:1049A000964FF6DB0020FBF7DDFC0FE06D1C6B483B
:1049B0000068B0F5964F05D2DFF8F00790F82401B3
:1049C000012818D0DFF8BC0701210170DFF8B40717
:1049D0000078002840F0A58040F6AC20C2F23830C4
:1049E0000268016891423FF4FCAF0A003FF4F9AF5E
:1049F0005A480021016040F6B420C2F23830026803
:104A0000016891423FF4FCAF0A003FF4F9AF3C2F3C
:104A100001D1761C0027DFF88007002101604D4896
:104A2000012101604FF42B60C2F238300268016846
:104A300091423FF4FCAF0A003FF4F9AF45480068EB
:104A4000401C444908604348006802285BD1E4B236
:104A5000B4424ED1002D4CD1E2480068C00B10F09A
:104A60000100E0490968890B11F00101DD4A126873
:104A7000920A12F00102DB4B1B685B0A13F0010380
:104A8000DFF860C3DCF800C05FEA1C2C1CF0010CEE
:104A9000DFF850E3DEF800E0CEF3001EDFF84483D9
:104AA000D8F80080C8F34008DFF83893D9F80090B0
:104AB00019F0010959EA480858EA8E0E5EEACC0C52
:104AC0005CEA031353EA421252EA811151EAC01020
:104AD000D0F1FF008DF8000020480068DFF83014A6
:104AE00040189DF8001001711C480068401C1B49CB
:104AF0000860184800210160DFF89C060068401C2F
:104B0000DFF894160860DFF890060068B0F5A07F23
:104B100088D3002D00D17F1C012D7FF447AF0025E5
:104B200045E70320FBF71EFCFDF7C2F9FDF796F9F8
:104B30001120FBF749FD1220FBF746FD1A20FBF779
:104B400043FD1C20FBF740FD62B6BDE8F183000089
:104B50000CC0024098620010906200109462001035
:104B60008C6200101800001008C0024048C00240CB
:104B700020C009202DE9F041BEB01120FBF73FFD18
:104B80001220FBF73CFD1A20FBF739FD1C20FBF738
:104B900036FD72B6DFF8EC05002101700024002517
:104BA0000026DFF8E40500210170DFF8E005FF21B1
:104BB00001700020FBF7D6FB15E001AA8A5C1018F3
:104BC000491CF029F9DBFDF77FF80022DFF8E0351A
:104BD000FCF796FEFDF724FBDFF8B8150870DFF848
:104BE000A40501210170DFF89C050078002840F041
:104BF000DD8040F6AC20C2F2383002680168914294
:104C00003FF4FCAF0A003FF4F9AFDFF8A80500213C
:104C1000016040F6B420C2F2383002680168914267
:104C20003FF4FCAF0A003FF4F9AFDFF86C05002158
:104C30000160DFF884050121016000264FF42B603C
:104C4000C2F238300268016891423FF4FCAF0A00BA
:104C50003FF4F9AFDFF860050068401CDFF8581535
:104C60000860DFF854050068022874D1002D67D170
:104C70005C480068C00B10F001005A490968890BB4
:104C800011F00101574A1268920A12F00102554BC5
:104C90001B685B0A13F00103524F3F683F0A17F08D
:104CA0000107DFF840C1DCF800C0CCF3001CDFF8DE
:104CB00034E1DEF800E0CEF3400EDFF82881D8F8CA
:104CC000008018F0010858EA4E0E5EEA8C0C5CEA8F
:104CD000C70757EA031353EA421252EA811151EA15
:104CE000C010D0F1FF008DF800009DF8000086197B
:104CF000DFF8940400789DF80010884204D2DFF8B1
:104D000088049DF8001001709DF80000DFF87C1405
:104D10000978884204D2DFF874049DF8001001700D
:104D20009DF80000022804DADFF860049DF8001006
:104D30000170DFF880040068401CDFF87814086018
:104D4000DFF8740400210160DFF84C040068401CA7
:104D5000DFF844140860DFF840040068B0F5A07F75
:104D6000FFF46CAF002D0CD13000FCF7B7FF002230
:104D7000DFF84834FCF7C4FDFDF752FA01A960548E
:104D8000641C012D01D1002500E06D1CDFF8240416
:104D90000068B0F5963F06D2DFF8100490F82401C1
:104DA00001283FF436AF002000210AE70320FBF77B
:104DB000D9FAFDF77DF8FDF751F81120FBF704FC57
:104DC0001220FBF701FC1A20FBF7FEFB1C20FBF76F
:104DD000FBFB62B63EB0BDE8F0810000C8C10F40E9
:104DE0004CC0024034C0092040C0092080B51320C7
:104DF000FFF700FB50F004000100C9B21320FFF7D9
:104E0000ADFA01BD80B51320FFF7F4FA10F0FB00F6
:104E10000100C9B21320FFF7A1FA01BD80B513202C
:104E2000FFF7E8FA50F002000100C9B21320FFF7C3
:104E300095FA01BD80B51320FFF7DCFA10F0FD00F4
:104E40000100C9B21320FFF789FA01BD80B5132014
:104E5000FFF7D0FA50F001000100C9B21320FFF7AC
:104E60007DFA01BD80B51320FFF7C4FA10F0FE00F3
:104E70000100C9B21320FFF771FA01BD38B5042053
:104E8000FFF7B8FA04001020FFF7B4FA0500072076
:104E9000FFF7B0FA14F0030110F03F00C0B2800237
:104EA000EDB2AA001043C9B20843FCF70DFF5FF052
:104EB0006632C34BFCF7DEFBFDF7B2F932BD38B505
:104EC000FCF702FF5FF06632BD4BFCF719FDFDF702
:104ED000A7F910F003018410801210F03F05C9B249
:104EE0000420FFF73BFA2100C9B21020FFF736FA81
:104EF0002900C9B20720FFF731FA31BD50C0024086
:104F000010C002409D6200101A000010C46D001015
:104F100018000010F8B50020FFF76CFA0400032019
:104F2000FFF768FAC0B2C309C0F38015E4B2E6091E
:104F3000C4F38017C4F34010C4F3001114F00F023F
:104F4000DBB25B1CEDB26C1C6343F6B2741C6343B2
:104F5000FFB27C1C6343C0B2401C00FB03F0C9B22B
:104F6000491C4843D2B20F2192FBF1F1491C48433E
:104F7000F2BD80B50220FFF73DFA02BD80B56A2080
:104F8000FFF738FA02BD80B50120FFF733FA02BD02
:104F900080B50100C9B20220FFF7E0F901BD80B57C
:104FA0000100C9B26A20FFF7D9F901BD80B501003F
:104FB000C9B20120FFF7D2F901BDF8B5FCF784FEB4
:104FC000FDF7EBF904000D0000205FF08041FDF7D4
:104FD000E4F902000B0020002900FCF791FCFDF72A
:104FE000EFF8FDF71DF90021002400220023002521
:104FF000002600275FF0000C5FF0000E012800DBA8
:105000008022022800DB4023032800DB80250428BF
:1050100000DB4026052800DB2027062801DB5FF0A7
:10502000100C072801DB5FF00F0E53EA020456EA6A
:10503000050038435CEA00005EEA0001C9B20020C6
:10504000FFF78CF92100C9B20320FFF787F9F1BD02
:10505000002004E05B49411800220A71401CB0F5B1
:10506000964FF7DB53480021016000200BE05149C7
:105070000968544A8918FF220A714E490968491C77
:105080004C4A1160401C2828F1D328200BE04949E4
:1050900009684C4A8918DB220A7146490968491C8B
:1050A000444A1160401C5028F1D350200BE0414984
:1050B0000968444A8918B7220A713E490968491C9F
:1050C0003C4A1160401C7828F1D378200BE0394924
:1050D00009683C4A891893220A7136490968491CB3
:1050E000344A1160401CA028F1D3A0200BE03149C4
:1050F0000968344A89186F220A712E490968491CC7
:105100002C4A1160401CC828F1D3C8200BE0294963
:1051100009682C4A89184B220A7126490968491CDA
:10512000244A1160401CF028F1D3F0200BE0214903
:105130000968244A891827220A711E490968491CEE
:105140001C4A1160401CB0F58C7FF0D34FF48C707A
:105150000BE0184909681B4A891800220A71154991
:105160000968491C134A1160401CB0F5A07FF0D3B8
:1051700010480068B0F5964FFFF477AF7047000015
:105180000A0000109C6200109F620010A0620010D4
:1051900000ECA3409E620010906200103333E33FA6
:1051A000B76DDBB66DDBD63FA8620010F86E00105D
:1051B00000006E409462001098620010000074407D
:1051C0006666FE3F1800001080B5DFF8C80700686B
:1051D00030F04000DFF8BC1708600220DFF8B81795
:1051E000096860F31551DFF8B00701600220DFF8AD
:1051F000AC17096860F31551DFF8A00701600220C1
:10520000DFF89817096860F39751DFF8900701609D
:105210000220DFF88C17096860F31551DFF880076A
:1052200001600220DFF87817096860F39751DFF812
:1052300070070160DFF86C07006850F48060DFF8E9
:1052400064170860DFF85C07006850F40060DFF85E
:1052500054170860DFF83C07006850F04000DFF8A2
:1052600034170860DFF84007FB210160DFF83C07D6
:10527000F9210160DFF83807082180F82911DFF8EB
:105280003007012180F82411FBF77CFFDFF82407A9
:10529000006830F48050DFF81C17086001BDDFF8AB
:1052A000100790F824017047DFF8041791F82811CF
:1052B00001292BD1DFF8F816D1F82011022911D3DA
:1052C0000021C9B2DFF8E826D2F8202191420ED29F
:1052D000C9B2DFF8DC268A1892F88220C9B20A54D3
:1052E000491CEEE7DFF8C81691F882100170DFF86C
:1052F000C006002180F82811DFF8B406082180F8E4
:105300002911DFF8AC0690F8290108E0DFF8A006C3
:10531000042180F82911DFF8980690F829017047D8
:1053200080B5DFF89406006810F0F80000F001F88E
:1053300001BD80B5C0B200281CD0082823D0102899
:1053400021D0182839D0202861D0282872D03028C0
:1053500000F0EA80382800F0FA80402800F0008150
:10536000482800F00681502800F00C81582800F0F1
:105370007181ABE1DFF81C0614210160DFF83C0607
:1053800008210160A6E1DFF8280690F82601DFF881
:10539000201691F8251151EA4000C0B200F0F1FA50
:1053A000DFF8F00504210160DFF81006202101601C
:1053B000DFF80806082101608CE1DFF8F40590F8B9
:1053C0001801DFF8EC15D1F81C11884208D1DFF87C
:1053D000C405006850F01000DFF8B815086015E04B
:1053E000DFF8CC0590F81801DFF8C415405C00F038
:1053F000C8FADFF8BC0590F81801401CDFF8B015BA
:1054000081F81801DFF8B4050821016062E1DFF8D6
:10541000840514210160DFF89805052180F8291121
:10542000DFF88C05012180F82411DFF890050821B0
:1054300001604FE1DFF8780590F8180100281AD1D3
:10544000DFF86C0590F81801DFF86415405C00F097
:1054500098FADFF8400504210160DFF8540590F860
:105460001801401CDFF8481581F81801DFF84C05D9
:105470000821016057E0DFF8380590F81801DFF8DF
:105480003015D1F81C11884220D2DFF8240590F89D
:10549000180100281AD0DFF8180590F81801DFF875
:1054A0001015405C00F06DFADFF8E804042101609B
:1054B000DFF8FC0490F81801401CDFF8F41481F8C0
:1054C0001801DFF8F804082101602CE0DFF8E0049F
:1054D00090F81801DFF8D814D1F81C11884222D1B5
:1054E000DFF8B00414210160DFF8C404012180F862
:1054F0002411DFF8BC04082180F82911DFF8BC046E
:1055000008210160DFF8A80490F8270100280AD0DC
:10551000DFF89C04D0F81C11C9B2DFF8940490F8AD
:10552000260100F04CF9D5E0DFF868041421016091
:10553000DFF87C04052180F82911DFF874040121CB
:1055400080F82411DFF8740408210160C2E0DFF85C
:10555000440424210160DFF8640408210160B9E0FB
:10556000DFF8300404210160DFF8500408210160F5
:10557000B0E0DFF8200414210160DFF840040821C6
:105580000160A7E0DFF8280490F81901002821D174
:10559000DFF81C04002180F8191100F0F6F9DFF89B
:1055A000101491F81911DFF80824891881F8820085
:1055B000DFF8FC0390F81901401CDFF8F41381F8C0
:1055C0001901DFF8D00304210160DFF8F00308219E
:1055D00001603EE0DFF8D80390F81901DFF8D0133E
:1055E000D1F82011884222D2DFF8C40390F81901C3
:1055F00000281CD000F0C9F9DFF8B41391F8191194
:10560000DFF8AC23891881F88200DFF8A40390F852
:105610001901401CDFF8981381F81901DFF87403B1
:1056200004210160DFF894030821016011E0DFF834
:10563000800390F81901DFF87813D1F8201188421F
:1056400007D1DFF8780304210160DFF87003082137
:1056500001603FE0DFF8580390F81901DFF85013BC
:10566000D1F82011884222D200F08FF9DFF84013E0
:1056700091F81911DFF83823891881F88200DFF8D2
:10568000140314210160DFF82803012180F8281198
:10569000DFF81C03012180F82411DFF8140308212E
:1056A00080F82911DFF81403082101600DE0B948E2
:1056B00014210160BE48012180F82811BC48012155
:1056C00080F82411BD480821016003E0B848092191
:1056D00080F8291101BD70B506000C0015001220DC
:1056E000FAF78DFFFFF7DBFD002807D1B048062150
:1056F00080F82911AE4890F829015FE0AC480021FC
:1057000080F82411AA48002180F81811A84880F8D0
:105710002661A748EDB2C0F81C51A548D0F81C017D
:1057200002280DD30020C0B2A149D1F81C11884233
:1057300009D2C0B2015DC0B29D4A8154401CF2E75B
:105740009B48217801709A48002180F825119848DB
:10575000002180F827118F48006850F020008D4903
:10576000086009E08B480068000705D5924800688A
:1057700010F0F800FFF7DDFD8D4890F824010028B7
:105780000CD18F480068411E8D4A11600028E9D174
:105790000A20874981F82901C0B20FE0002000E00B
:1057A000401CB0F5967FFBD31220FAF70DFF84481A
:1057B00041F2883101607E4890F8290170BD38B50A
:1057C00004000D001220FAF71AFFFFF768FD002809
:1057D00007D17748062180F82911754890F82901EA
:1057E0004CE0734890F82801012807D17048072140
:1057F00080F829116E4890F829013FE06C4800219B
:1058000080F824116A48002180F81911684880F84E
:1058100026416748EDB2C0F820516548012180F863
:1058200025115C48006850F020005A49086009E0E2
:1058300058480068000705D55F48006810F0F80078
:10584000FFF777FD5A4890F8240100280CD15C48F6
:105850000068411E5A4A11600028E9D10A205449C3
:1058600081F82901C0B209E01220FAF7ADFE5448D0
:1058700041F2883101604E4890F8290132BDF8B5F7
:1058800006000C0017001D001220FAF7B8FEFFF703
:1058900006FD002807D14648062180F82911444812
:1058A00090F829016CE04248002180F8241140481A
:1058B000002180F818113E4880F826613C48FFB26C
:1058C000C0F81C713A48D0F81C0102280DD3002002
:1058D0003749D1F81C11C0B2814209D2C0B2015D72
:1058E000C0B2334A8154401CF2E73148217801703C
:1058F0002F48002180F819112D48EDB2C0F8205131
:105900002B48012180F827112948002180F8251112
:105910002048006850F020001E49086009E01D483A
:105920000068000705D52448006810F0F800FFF76C
:1059300000FD1F4890F82401002817D12048006876
:10594000411E1F4A11600128E9DA1948012180F837
:1059500024111B4841F2883101601220FAF734FE0D
:105960000A20134981F82901C0B209E01220FAF790
:105970002BFE134841F2883101600D4890F829014F
:10598000F2BD1049C0B2086070470E480068C0B24E
:105990007047000000000A40ACC10F4000C0024048
:1059A00040C0024068C0024010000A4014000A4093
:1059B000C46D001000E100E004000A4018000A4035
:1059C0000000001008000A4010B5DFF8F00740782A
:1059D000002800F0F183DFF8E80700684008400085
:1059E000DFF8DC170860DFF8D4070078022800F041
:1059F0007F80032800F08E80042800F09D80062818
:105A000000F0A780072800F0D080082800F0F08080
:105A1000092800F010810A2800F039810B2800F0D5
:105A20004A810C2800F05D810D2800F075810E2858
:105A300000F080810F2800F08B81102800F0988101
:105A4000112800F0A981122800F0B881132800F075
:105A5000FB81142800F00B82152800F045821628DF
:105A600000F04F82172800F09982182800F0A982D0
:105A7000192800F0BC821A2800F0CC821B2800F004
:105A8000DF821C2800F0F3821D2800F00B831E2803
:105A900000F02E8321280CD0222800F03F832328F9
:105AA00000F04183272800F04D83282800F05B8315
:105AB00082E3FBF767FB002014E0C0B2DFF80417B5
:105AC000411891F88310DFF800271268DFF8FC36E0
:105AD000D2181171DFF8F0160968491CDFF8E826C2
:105AE0001160401CC0B22A28E7DBFBF7E9FB63E347
:105AF000FBF748FBDFF8D80601210170DFF8D0067C
:105B00000078DFF8BC16096860F30001DFF8B00622
:105B1000016051E3FBF736FBDFF8B40600210170AA
:105B2000DFF8AC060078DFF89816096860F300012A
:105B3000DFF88C0601603FE3FBF724FBFCF7B8F9C4
:105B4000FCF7C3F9FCF7CEF9DFF8880600210170F5
:105B500032E3FBF717FB0020DFF87C1609780029F9
:105B600001D050F00100DFF874160978002901D047
:105B700050F00200DFF868160978002901D050F0D3
:105B80000400DFF840160122C1F81C21DFF83416AA
:105B90000870DFF83C060078DFF82416096860F327
:105BA0000001DFF81C06016006E3FBF7EBFA0020BA
:105BB00000F039FBDFF80C060221C0F81C11DFF8F9
:105BC00024060069DFF8FC150870DFF81806006984
:105BD0000012DFF8F0154870DFF8F4050078DFF800
:105BE000E015096860F30001DFF8D4050160E3E225
:105BF000FBF7C8FA012000F016FBDFF8C805022108
:105C0000C0F81C11DFF8DC054069DFF8B815087032
:105C1000DFF8D00540690012DFF8A8154870DFF8FA
:105C2000B0050078DFF89815096860F30001DFF827
:105C300090050160C0E2FBF7A5FADFF88005C078A7
:105C4000DFF878150C79C0B2FCF7EFF8E00702D561
:105C5000FCF704F901E0FCF72BF9A00702D5FCF7EB
:105C60000BF901E0FCF731F9600702D5FCF712F9F6
:105C700001E0FCF737F9DFF858050078DFF8401548
:105C8000096860F30001DFF83805016094E2FBF772
:105C900079FADFF82805C078DFF84C150870DFF8CE
:105CA00030050078DFF81815096860F30001DFF8A7
:105CB0001005016080E2FBF765FADFF80005C178A6
:105CC000DFF824050078FEF749FBDFF804050078CB
:105CD000DFF8EC14096860F30001DFF8E404016008
:105CE0006AE2FBF74FFADFF8DC040121C0F81C116F
:105CF000DFF8F4040078FEF77DFBDFF8C8140870C5
:105D0000DFF8CC040078DFF8B814096860F300010C
:105D1000DFF8AC0401604FE2FBF734FADFF8B004BF
:105D20000078DFF89C14096860F30001DFF8900444
:105D3000016041E2FBF726FADFF894040078DFF80F
:105D40008014096860F30001DFF87404016033E235
:105D5000FBF718FAFFF77CF9DFF874040078DFF836
:105D60006014096860F30001DFF85404016023E265
:105D7000FBF708FADFF84404C078DFF87014087005
:105D8000DFF84C040078DFF83814096860F300018C
:105D9000DFF82C0401600FE2FBF7F4F9FEF7EAFEEE
:105DA000FEF75CFBDFF828040078DFF814140968BC
:105DB00060F30001DFF808040160FDE1FBF7E2F9A0
:105DC000DFF80004DFF8F413097AC0F81C11002092
:105DD00027E0DFF8E813C9782822DFF8E0331B79E1
:105DE00002FB0131DFF8D42352795118DFF8CC23BC
:105DF00092795118DFF8C423D2795118C0B24118F2
:105E0000DFF8C023C2F82C11DFF8B813D1F82C1139
:105E1000DFF8B82389180979C0B2DFF8A8238154C4
:105E2000401CC0B2DFF89C13D1F81C118842D0D3BB
:105E3000DFF89C030078DFF88813096860F300013D
:105E4000DFF87C030160B7E1FBF79CF9DFF86C0336
:105E5000C078FEF785FDDFF878030078DFF860137F
:105E6000096860F30001DFF858030160A4E1FBF763
:105E700089F9DFF85003DFF84413097AC0F81C11E0
:105E8000002020E0DFF83413C9784FF4A072DFF867
:105E90002C331B7902FB0131DFF820235279511892
:105EA000C0B24118DFF81C23C2F82C11DFF814131C
:105EB000D1F82C11DFF8142389180979C0B2DFF862
:105EC00004238154401CC0B2DFF8F812D1F81C1131
:105ED0008842D7D3DFF8F8020078B949096860F33F
:105EE0000001B748016067E1FBF74CF900F0B0FB37
:105EF000B7480078B249096860F30001B048016012
:105F00005AE1FBF73FF9AD48C078002808D00228D5
:105F100018D00ED3042827D01DD305282DD034E067
:105F2000A848B34909780170A648B1494978417039
:105F30002BE0AF488078A3490870A248AC49C978E3
:105F4000417022E0AA4800799E4908709D48A849FE
:105F50004979417019E0A64880799A4908709948B2
:105F6000A349C979417010E0A148007A95490870A9
:105F700094489F49497A417007E09D48807A914949
:105F8000087090489A49C97A4170914800788C49C4
:105F9000096860F300018A4801600DE1FBF7F2F83F
:105FA0008648C0788549097910EAC110FFF705F8DD
:105FB000874800788249096860F3000180480160E1
:105FC000FAE0FBF7DFF8FEF7A5FF7E490222C1F8F1
:105FD0001C217C490870C0117A4948707C480078BF
:105FE0007749096860F3000175480160E4E0FBF758
:105FF000C9F87248C0787149097910EAC110FEF7F2
:106000005EFF734800786E49096860F300016C48D0
:106010000160D1E0FBF7B6F8FEF730FF69490222D4
:10602000C1F81C2167490870C0116649487068486A
:1060300000786349096860F3000161480160BBE0D2
:10604000FBF7A0F85D48C078FEF7A2FF5B48007937
:10605000FEF7A5FF59484079FEF7A8FF5C48007895
:106060005749096860F3000155480160A4E0FBF757
:1060700089F854480321C0F81C11FEF77AFF5149F2
:106080000870FEF77BFF4F494870FEF77CFF4D49D3
:1060900088704F4800784A49096860F30001484811
:1060A000016089E0FBF76EF84448C078C00702D56C
:1060B000FEF7CCFE01E0FEF7D5FE4048C078800731
:1060C00002D5FEF7ABFE01E0FEF7B4FE3B48C07818
:1060D000400702D5FEF78AFE01E0FEF793FE3C483A
:1060E00000783749096860F300013548016063E0D2
:1060F000FBF748F81320FEF77DF932490122C1F879
:106100001C2110F007002F490870314800782C49F5
:10611000096860F300012A4801604DE0FBF732F89E
:10612000FAF716FE48E0FBF72DF826480221C0F8E2
:106130001C1124482F490968017022482E4909681A
:10614000417039E0FBF71EF8FEF714FDFEF786F903
:10615000FEF7C6FA1E4800781949096860F3000185
:106160001748016028E0FBF70DF816480221C0F837
:106170001C11224AD2E90001FCF752F811490870BB
:106180001E4AD2E90001FCF71BF802000B001B4C71
:10619000D4E90001FBF7D8FC0022194BFBF76AFA9F
:1061A000FCF73EF807494870094800780449096837
:1061B00060F300010248016010BD00BF8470001050
:1061C00004400040F86E00102C7000101800001001
:1061D00098700010AD700010080000100900001049
:1061E0000A00001058700010A87000100400001081
:1061F00078700010A0700010A4700010A862001049
:106200000000594080B59048002141718E4800211E
:1062100001718D4800218171002000F004F80120F7
:1062200000F001F801BD80B5874908778648007FF6
:1062300000285BD18448822101708348832141700A
:1062400081480021817080480021C1700123012212
:106250007D495F20FFF713FB7B48012101717B48DB
:10626000FFF722F80123012279495F20FFF707FB9E
:106270007848FFF719F87448C0787349897851EA6B
:1062800080107149886070488068FBF71DFD724A74
:10629000724BFBF7EFF902000B0000207049FBF78F
:1062A00053FC00226F4BFBF7E5F900226E4BFBF726
:1062B000B3FAFBF7FBFE6449C8606348C1686B48EA
:1062C000FBF736FEFBF7D8FF5F490861684890F896
:1062D0002901082807D167480078002803D06548BD
:1062E0000121017002E06348002101705648007FDF
:1062F000012851D1544880210170534881214170B7
:1063000051480021817050480021C17001230122B1
:106310004D495F20FFF7B3FA4B48012101714B480B
:10632000FEF7C2FF0123012249495F20FFF7A7FAC8
:106330004848FEF7B9FF4448C0784349897851EA94
:1063400080104149886040488068FBF7BDFC424AA4
:10635000424BFBF78FF90022474BFBF78BF9FBF71A
:10636000A5FE3949C8603848C1684048FBF7E0FDE0
:10637000FBF782FF344948613D4890F8290108281D
:1063800007D13E480078002803D03C480121017025
:1063900002E03A48002101702B48007F022851D1C9
:1063A0002948842101702848852141702648002110
:1063B000817025480021C1700123012222495F20FC
:1063C000FFF75DFA2048012101712048FEF76CFFBC
:1063D000012301221E495F20FFF751FA1D48FEF7F5
:1063E00063FF1948C0781849897851EA8010164926
:1063F000886015488068FBF767FC174A174BFBF766
:1064000039F900221C4BFBF735F9FBF74FFE0E491B
:10641000C8600D48C1681548FBF78AFDFBF72CFFE3
:1064200009498861124890F82901082807D11348C2
:106430000078002803D011480121017002E00F48C4
:106440000021017001BD0000587000105A7000104A
:10645000597000105B70001001BE8003FF00303FD8
:106460000000F03F00A06440000044C000007A44F7
:10647000C46D00100800001000002E40090000103C
:10648000002004E06F49411800220A71401CB0F559
:10649000405F09D26B4941180979A129F2DB6949AA
:1064A0004118FF220A71F1E77047802202FB0010B9
:1064B000704780B564480021C170634800210170B5
:1064C00041E06148417860480078FFF7EEFF5D49A0
:1064D00040180079FF2828D15B48C07819215A4A12
:1064E00001FB002058490978C17157480079564985
:1064F000C9781922544B02FB01314018524949789E
:10650000C17151480079401C4F4908714E480078CC
:106510004D498978884204D04B48C078401C4A498C
:10652000C870494848490978817047484078401CFC
:1065300045494870444840788028C2DB424800788A
:10654000401C4149087040480078602806DA3E48FF
:10655000012101713C4800214170EBE701BD10B4FD
:106560000020394901224A713749C978C9B249081E
:10657000354A917104E034494979491C324A5171D4
:10658000C0B200280DD1304949792F4A9279192398
:106590002D4C03FB02428918C9790029EBD1012057
:1065A000EEE729484079C0B240082749487126489B
:1065B0004079254989791922234B02FB0131401882
:1065C000C079214948712048807919211E4A01FB70
:1065D0000020C0791C4988711B4840791B4908700C
:1065E0001A4819498979417010BC704738B5164866
:1065F0004079441F14488079451F0AE0E4B2210025
:1066000011488079FFF751FF0E4940188021017130
:10661000641CE4B20C484079401D8442EEDB0AE081
:1066200009484179EDB22800FFF73FFF05494018BE
:10663000802101716D1CEDB203488079401D8542B7
:10664000EEDB31BD18000010B06200107870001051
:1066500080B5FFF715FFFFF72CFFFFF780FFFFF76F
:0C666000C5FF01BD88130000F50000001C
:040000050000238F45
:00000001FF
